{
  "contracts/MyERC20Token.sol": {
    "MyERC20Token": {
      "abi": [
        {
          "inputs": [
            {
              "internalType": "string",
              "name": "name",
              "type": "string"
            },
            {
              "internalType": "string",
              "name": "symbol",
              "type": "string"
            },
            {
              "internalType": "uint256",
              "name": "initialSupply",
              "type": "uint256"
            },
            {
              "internalType": "address",
              "name": "initialOwner",
              "type": "address"
            }
          ],
          "stateMutability": "nonpayable",
          "type": "constructor"
        },
        {
          "anonymous": false,
          "inputs": [
            {
              "indexed": true,
              "internalType": "address",
              "name": "owner",
              "type": "address"
            },
            {
              "indexed": true,
              "internalType": "address",
              "name": "spender",
              "type": "address"
            },
            {
              "indexed": false,
              "internalType": "uint256",
              "name": "value",
              "type": "uint256"
            }
          ],
          "name": "Approval",
          "type": "event"
        },
        {
          "anonymous": false,
          "inputs": [
            {
              "indexed": true,
              "internalType": "address",
              "name": "previousOwner",
              "type": "address"
            },
            {
              "indexed": true,
              "internalType": "address",
              "name": "newOwner",
              "type": "address"
            }
          ],
          "name": "OwnershipTransferred",
          "type": "event"
        },
        {
          "anonymous": false,
          "inputs": [
            {
              "indexed": false,
              "internalType": "address",
              "name": "account",
              "type": "address"
            }
          ],
          "name": "Paused",
          "type": "event"
        },
        {
          "anonymous": false,
          "inputs": [
            {
              "indexed": true,
              "internalType": "address",
              "name": "to",
              "type": "address"
            },
            {
              "indexed": false,
              "internalType": "uint256",
              "name": "amount",
              "type": "uint256"
            }
          ],
          "name": "TokensMinted",
          "type": "event"
        },
        {
          "anonymous": false,
          "inputs": [
            {
              "indexed": true,
              "internalType": "address",
              "name": "from",
              "type": "address"
            },
            {
              "indexed": true,
              "internalType": "address",
              "name": "to",
              "type": "address"
            },
            {
              "indexed": false,
              "internalType": "uint256",
              "name": "value",
              "type": "uint256"
            }
          ],
          "name": "Transfer",
          "type": "event"
        },
        {
          "anonymous": false,
          "inputs": [
            {
              "indexed": false,
              "internalType": "address",
              "name": "account",
              "type": "address"
            }
          ],
          "name": "Unpaused",
          "type": "event"
        },
        {
          "inputs": [
            {
              "internalType": "address",
              "name": "owner",
              "type": "address"
            },
            {
              "internalType": "address",
              "name": "spender",
              "type": "address"
            }
          ],
          "name": "allowance",
          "outputs": [
            {
              "internalType": "uint256",
              "name": "",
              "type": "uint256"
            }
          ],
          "stateMutability": "view",
          "type": "function"
        },
        {
          "inputs": [
            {
              "internalType": "address",
              "name": "spender",
              "type": "address"
            },
            {
              "internalType": "uint256",
              "name": "amount",
              "type": "uint256"
            }
          ],
          "name": "approve",
          "outputs": [
            {
              "internalType": "bool",
              "name": "",
              "type": "bool"
            }
          ],
          "stateMutability": "nonpayable",
          "type": "function"
        },
        {
          "inputs": [
            {
              "internalType": "address",
              "name": "account",
              "type": "address"
            }
          ],
          "name": "balanceOf",
          "outputs": [
            {
              "internalType": "uint256",
              "name": "",
              "type": "uint256"
            }
          ],
          "stateMutability": "view",
          "type": "function"
        },
        {
          "inputs": [
            {
              "internalType": "uint256",
              "name": "amount",
              "type": "uint256"
            }
          ],
          "name": "burn",
          "outputs": [],
          "stateMutability": "nonpayable",
          "type": "function"
        },
        {
          "inputs": [
            {
              "internalType": "address",
              "name": "account",
              "type": "address"
            },
            {
              "internalType": "uint256",
              "name": "amount",
              "type": "uint256"
            }
          ],
          "name": "burnFrom",
          "outputs": [],
          "stateMutability": "nonpayable",
          "type": "function"
        },
        {
          "inputs": [],
          "name": "decimals",
          "outputs": [
            {
              "internalType": "uint8",
              "name": "",
              "type": "uint8"
            }
          ],
          "stateMutability": "view",
          "type": "function"
        },
        {
          "inputs": [
            {
              "internalType": "address",
              "name": "spender",
              "type": "address"
            },
            {
              "internalType": "uint256",
              "name": "subtractedValue",
              "type": "uint256"
            }
          ],
          "name": "decreaseAllowance",
          "outputs": [
            {
              "internalType": "bool",
              "name": "",
              "type": "bool"
            }
          ],
          "stateMutability": "nonpayable",
          "type": "function"
        },
        {
          "inputs": [
            {
              "internalType": "address",
              "name": "spender",
              "type": "address"
            },
            {
              "internalType": "uint256",
              "name": "addedValue",
              "type": "uint256"
            }
          ],
          "name": "increaseAllowance",
          "outputs": [
            {
              "internalType": "bool",
              "name": "",
              "type": "bool"
            }
          ],
          "stateMutability": "nonpayable",
          "type": "function"
        },
        {
          "inputs": [
            {
              "internalType": "address",
              "name": "to",
              "type": "address"
            },
            {
              "internalType": "uint256",
              "name": "amount",
              "type": "uint256"
            }
          ],
          "name": "mint",
          "outputs": [],
          "stateMutability": "nonpayable",
          "type": "function"
        },
        {
          "inputs": [],
          "name": "name",
          "outputs": [
            {
              "internalType": "string",
              "name": "",
              "type": "string"
            }
          ],
          "stateMutability": "view",
          "type": "function"
        },
        {
          "inputs": [],
          "name": "owner",
          "outputs": [
            {
              "internalType": "address",
              "name": "",
              "type": "address"
            }
          ],
          "stateMutability": "view",
          "type": "function"
        },
        {
          "inputs": [],
          "name": "pause",
          "outputs": [],
          "stateMutability": "nonpayable",
          "type": "function"
        },
        {
          "inputs": [],
          "name": "paused",
          "outputs": [
            {
              "internalType": "bool",
              "name": "",
              "type": "bool"
            }
          ],
          "stateMutability": "view",
          "type": "function"
        },
        {
          "inputs": [],
          "name": "renounceOwnership",
          "outputs": [],
          "stateMutability": "nonpayable",
          "type": "function"
        },
        {
          "inputs": [],
          "name": "symbol",
          "outputs": [
            {
              "internalType": "string",
              "name": "",
              "type": "string"
            }
          ],
          "stateMutability": "view",
          "type": "function"
        },
        {
          "inputs": [],
          "name": "totalSupply",
          "outputs": [
            {
              "internalType": "uint256",
              "name": "",
              "type": "uint256"
            }
          ],
          "stateMutability": "view",
          "type": "function"
        },
        {
          "inputs": [
            {
              "internalType": "address",
              "name": "to",
              "type": "address"
            },
            {
              "internalType": "uint256",
              "name": "amount",
              "type": "uint256"
            }
          ],
          "name": "transfer",
          "outputs": [
            {
              "internalType": "bool",
              "name": "",
              "type": "bool"
            }
          ],
          "stateMutability": "nonpayable",
          "type": "function"
        },
        {
          "inputs": [
            {
              "internalType": "address",
              "name": "from",
              "type": "address"
            },
            {
              "internalType": "address",
              "name": "to",
              "type": "address"
            },
            {
              "internalType": "uint256",
              "name": "amount",
              "type": "uint256"
            }
          ],
          "name": "transferFrom",
          "outputs": [
            {
              "internalType": "bool",
              "name": "",
              "type": "bool"
            }
          ],
          "stateMutability": "nonpayable",
          "type": "function"
        },
        {
          "inputs": [
            {
              "internalType": "address",
              "name": "newOwner",
              "type": "address"
            }
          ],
          "name": "transferOwnership",
          "outputs": [],
          "stateMutability": "nonpayable",
          "type": "function"
        },
        {
          "inputs": [],
          "name": "unpause",
          "outputs": [],
          "stateMutability": "nonpayable",
          "type": "function"
        }
      ],
      "evm": {
        "bytecode": {
          "linkReferences": {},
          "object": "608060405234801561001057600080fd5b50604051612a5a380380612a5a83398181016040528101906100329190610525565b8383816003908161004391906107db565b50806004908161005391906107db565b5050506100726100676100d960201b60201c565b6100e160201b60201c565b6000600560146101000a81548160ff02191690831515021790555061009c816100e160201b60201c565b6100d0816100ae6101a760201b60201c565b600a6100ba9190610a1c565b846100c59190610a67565b6101b060201b60201c565b50505050610b84565b600033905090565b6000600560009054906101000a900473ffffffffffffffffffffffffffffffffffffffff16905081600560006101000a81548173ffffffffffffffffffffffffffffffffffffffff021916908373ffffffffffffffffffffffffffffffffffffffff1602179055508173ffffffffffffffffffffffffffffffffffffffff168173ffffffffffffffffffffffffffffffffffffffff167f8be0079c531659141344cd1fd0a4f28419497f9722a3daafe3b4186f6b6457e060405160405180910390a35050565b60006012905090565b600073ffffffffffffffffffffffffffffffffffffffff168273ffffffffffffffffffffffffffffffffffffffff160361021f576040517f08c379a000000000000000000000000000000000000000000000000000000000815260040161021690610b06565b60405180910390fd5b6102316000838361031260201b60201c565b80600260008282546102439190610b26565b92505081905550806000808473ffffffffffffffffffffffffffffffffffffffff1673ffffffffffffffffffffffffffffffffffffffff168152602001908152602001600020600082825401925050819055508173ffffffffffffffffffffffffffffffffffffffff16600073ffffffffffffffffffffffffffffffffffffffff167fddf252ad1be2c89b69c2b068fc378daa952ba7f163c4a11628f55a4df523b3ef836040516102f49190610b69565b60405180910390a361030e6000838361031760201b60201c565b5050565b505050565b505050565b6000604051905090565b600080fd5b600080fd5b600080fd5b600080fd5b6000601f19601f8301169050919050565b7f4e487b7100000000000000000000000000000000000000000000000000000000600052604160045260246000fd5b6103838261033a565b810181811067ffffffffffffffff821117156103a2576103a161034b565b5b80604052505050565b60006103b561031c565b90506103c1828261037a565b919050565b600067ffffffffffffffff8211156103e1576103e061034b565b5b6103ea8261033a565b9050602081019050919050565b60005b838110156104155780820151818401526020810190506103fa565b60008484015250505050565b600061043461042f846103c6565b6103ab565b9050828152602081018484840111156104505761044f610335565b5b61045b8482856103f7565b509392505050565b600082601f83011261047857610477610330565b5b8151610488848260208601610421565b91505092915050565b6000819050919050565b6104a481610491565b81146104af57600080fd5b50565b6000815190506104c18161049b565b92915050565b600073ffffffffffffffffffffffffffffffffffffffff82169050919050565b60006104f2826104c7565b9050919050565b610502816104e7565b811461050d57600080fd5b50565b60008151905061051f816104f9565b92915050565b6000806000806080858703121561053f5761053e610326565b5b600085015167ffffffffffffffff81111561055d5761055c61032b565b5b61056987828801610463565b945050602085015167ffffffffffffffff81111561058a5761058961032b565b5b61059687828801610463565b93505060406105a7878288016104b2565b92505060606105b887828801610510565b91505092959194509250565b600081519050919050565b7f4e487b7100000000000000000000000000000000000000000000000000000000600052602260045260246000fd5b6000600282049050600182168061061657607f821691505b602082108103610629576106286105cf565b5b50919050565b60008190508160005260206000209050919050565b60006020601f8301049050919050565b600082821b905092915050565b6000600883026106917fffffffffffffffffffffffffffffffffffffffffffffffffffffffffffffffff82610654565b61069b8683610654565b95508019841693508086168417925050509392505050565b6000819050919050565b60006106d86106d36106ce84610491565b6106b3565b610491565b9050919050565b6000819050919050565b6106f2836106bd565b6107066106fe826106df565b848454610661565b825550505050565b600090565b61071b61070e565b6107268184846106e9565b505050565b5b8181101561074a5761073f600082610713565b60018101905061072c565b5050565b601f82111561078f576107608161062f565b61076984610644565b81016020851015610778578190505b61078c61078485610644565b83018261072b565b50505b505050565b600082821c905092915050565b60006107b260001984600802610794565b1980831691505092915050565b60006107cb83836107a1565b9150826002028217905092915050565b6107e4826105c4565b67ffffffffffffffff8111156107fd576107fc61034b565b5b61080782546105fe565b61081282828561074e565b600060209050601f8311600181146108455760008415610833578287015190505b61083d85826107bf565b8655506108a5565b601f1984166108538661062f565b60005b8281101561087b57848901518255600182019150602085019450602081019050610856565b868310156108985784890151610894601f8916826107a1565b8355505b6001600288020188555050505b505050505050565b7f4e487b7100000000000000000000000000000000000000000000000000000000600052601160045260246000fd5b60008160011c9050919050565b6000808291508390505b60018511156109335780860481111561090f5761090e6108ad565b5b600185161561091e5780820291505b808102905061092c856108dc565b94506108f3565b94509492505050565b60008261094c5760019050610a08565b8161095a5760009050610a08565b8160018114610970576002811461097a576109a9565b6001915050610a08565b60ff84111561098c5761098b6108ad565b5b8360020a9150848211156109a3576109a26108ad565b5b50610a08565b5060208310610133831016604e8410600b84101617156109de5782820a9050838111156109d9576109d86108ad565b5b610a08565b6109eb84848460016108e9565b92509050818404811115610a0257610a016108ad565b5b81810290505b9392505050565b600060ff82169050919050565b6000610a2782610491565b9150610a3283610a0f565b9250610a5f7fffffffffffffffffffffffffffffffffffffffffffffffffffffffffffffffff848461093c565b905092915050565b6000610a7282610491565b9150610a7d83610491565b9250828202610a8b81610491565b91508282048414831517610aa257610aa16108ad565b5b5092915050565b600082825260208201905092915050565b7f45524332303a206d696e7420746f20746865207a65726f206164647265737300600082015250565b6000610af0601f83610aa9565b9150610afb82610aba565b602082019050919050565b60006020820190508181036000830152610b1f81610ae3565b9050919050565b6000610b3182610491565b9150610b3c83610491565b9250828201905080821115610b5457610b536108ad565b5b92915050565b610b6381610491565b82525050565b6000602082019050610b7e6000830184610b5a565b92915050565b611ec780610b936000396000f3fe608060405234801561001057600080fd5b506004361061012c5760003560e01c806370a08231116100ad57806395d89b411161007157806395d89b41146102f9578063a457c2d714610317578063a9059cbb14610347578063dd62ed3e14610377578063f2fde38b146103a75761012c565b806370a082311461027b578063715018a6146102ab57806379cc6790146102b55780638456cb59146102d15780638da5cb5b146102db5761012c565b806339509351116100f457806339509351146101eb5780633f4ba83a1461021b57806340c10f191461022557806342966c68146102415780635c975abb1461025d5761012c565b806306fdde0314610131578063095ea7b31461014f57806318160ddd1461017f57806323b872dd1461019d578063313ce567146101cd575b600080fd5b6101396103c3565b60405161014691906113e7565b60405180910390f35b610169600480360381019061016491906114a2565b610455565b60405161017691906114fd565b60405180910390f35b610187610478565b6040516101949190611527565b60405180910390f35b6101b760048036038101906101b29190611542565b610482565b6040516101c491906114fd565b60405180910390f35b6101d56104a0565b6040516101e291906115b1565b60405180910390f35b610205600480360381019061020091906114a2565b6104a9565b60405161021291906114fd565b60405180910390f35b6102236104e0565b005b61023f600480360381019061023a91906114a2565b6104f2565b005b61025b600480360381019061025691906115cc565b610556565b005b61026561056a565b60405161027291906114fd565b60405180910390f35b610295600480360381019061029091906115f9565b610581565b6040516102a29190611527565b60405180910390f35b6102b36105c9565b005b6102cf60048036038101906102ca91906114a2565b6105dd565b005b6102d96105fd565b005b6102e361060f565b6040516102f09190611635565b60405180910390f35b610301610639565b60405161030e91906113e7565b60405180910390f35b610331600480360381019061032c91906114a2565b6106cb565b60405161033e91906114fd565b60405180910390f35b610361600480360381019061035c91906114a2565b610742565b60405161036e91906114fd565b60405180910390f35b610391600480360381019061038c9190611650565b61075e565b60405161039e9190611527565b60405180910390f35b6103c160048036038101906103bc91906115f9565b6107e5565b005b6060600380546103d2906116bf565b80601f01602080910402602001604051908101604052809291908181526020018280546103fe906116bf565b801561044b5780601f106104205761010080835404028352916020019161044b565b820191906000526020600020905b81548152906001019060200180831161042e57829003601f168201915b5050505050905090565b600080610460610868565b905061046d818585610870565b600191505092915050565b6000600254905090565b600061048c610a39565b610497848484610a83565b90509392505050565b60006012905090565b6000806104b4610868565b90506104d58185856104c6858961075e565b6104d0919061171f565b610870565b600191505092915050565b6104e8610ab2565b6104f0610b30565b565b6104fa610ab2565b6105048282610b93565b8173ffffffffffffffffffffffffffffffffffffffff167f3f2c9d57c068687834f0de942a9babb9e5acab57d516d3480a3c16ee165a42738260405161054a9190611527565b60405180910390a25050565b610567610561610868565b82610ce9565b50565b6000600560149054906101000a900460ff16905090565b60008060008373ffffffffffffffffffffffffffffffffffffffff1673ffffffffffffffffffffffffffffffffffffffff168152602001908152602001600020549050919050565b6105d1610ab2565b6105db6000610eb6565b565b6105ef826105e9610868565b83610f7c565b6105f98282610ce9565b5050565b610605610ab2565b61060d611008565b565b6000600560009054906101000a900473ffffffffffffffffffffffffffffffffffffffff16905090565b606060048054610648906116bf565b80601f0160208091040260200160405190810160405280929190818152602001828054610674906116bf565b80156106c15780601f10610696576101008083540402835291602001916106c1565b820191906000526020600020905b8154815290600101906020018083116106a457829003601f168201915b5050505050905090565b6000806106d6610868565b905060006106e4828661075e565b905083811015610729576040517f08c379a0000000000000000000000000000000000000000000000000000000008152600401610720906117c5565b60405180910390fd5b6107368286868403610870565b60019250505092915050565b600061074c610a39565b610756838361106b565b905092915050565b6000600160008473ffffffffffffffffffffffffffffffffffffffff1673ffffffffffffffffffffffffffffffffffffffff16815260200190815260200160002060008373ffffffffffffffffffffffffffffffffffffffff1673ffffffffffffffffffffffffffffffffffffffff16815260200190815260200160002054905092915050565b6107ed610ab2565b600073ffffffffffffffffffffffffffffffffffffffff168173ffffffffffffffffffffffffffffffffffffffff160361085c576040517f08c379a000000000000000000000000000000000000000000000000000000000815260040161085390611857565b60405180910390fd5b61086581610eb6565b50565b600033905090565b600073ffffffffffffffffffffffffffffffffffffffff168373ffffffffffffffffffffffffffffffffffffffff16036108df576040517f08c379a00000000000000000000000000000000000000000000000000000000081526004016108d6906118e9565b60405180910390fd5b600073ffffffffffffffffffffffffffffffffffffffff168273ffffffffffffffffffffffffffffffffffffffff160361094e576040517f08c379a00000000000000000000000000000000000000000000000000000000081526004016109459061197b565b60405180910390fd5b80600160008573ffffffffffffffffffffffffffffffffffffffff1673ffffffffffffffffffffffffffffffffffffffff16815260200190815260200160002060008473ffffffffffffffffffffffffffffffffffffffff1673ffffffffffffffffffffffffffffffffffffffff168152602001908152602001600020819055508173ffffffffffffffffffffffffffffffffffffffff168373ffffffffffffffffffffffffffffffffffffffff167f8c5be1e5ebec7d5bd14f71427d1e84f3dd0314c0f7b2291e5b200ac8c7c3b92583604051610a2c9190611527565b60405180910390a3505050565b610a4161056a565b15610a81576040517f08c379a0000000000000000000000000000000000000000000000000000000008152600401610a78906119e7565b60405180910390fd5b565b600080610a8e610868565b9050610a9b858285610f7c565b610aa685858561108e565b60019150509392505050565b610aba610868565b73ffffffffffffffffffffffffffffffffffffffff16610ad861060f565b73ffffffffffffffffffffffffffffffffffffffff1614610b2e576040517f08c379a0000000000000000000000000000000000000000000000000000000008152600401610b2590611a53565b60405180910390fd5b565b610b38611304565b6000600560146101000a81548160ff0219169083151502179055507f5db9ee0a495bf2e6ff9c91a7834c1ba4fdd244a5e8aa4e537bd38aeae4b073aa610b7c610868565b604051610b899190611635565b60405180910390a1565b600073ffffffffffffffffffffffffffffffffffffffff168273ffffffffffffffffffffffffffffffffffffffff1603610c02576040517f08c379a0000000000000000000000000000000000000000000000000000000008152600401610bf990611abf565b60405180910390fd5b610c0e6000838361134d565b8060026000828254610c20919061171f565b92505081905550806000808473ffffffffffffffffffffffffffffffffffffffff1673ffffffffffffffffffffffffffffffffffffffff168152602001908152602001600020600082825401925050819055508173ffffffffffffffffffffffffffffffffffffffff16600073ffffffffffffffffffffffffffffffffffffffff167fddf252ad1be2c89b69c2b068fc378daa952ba7f163c4a11628f55a4df523b3ef83604051610cd19190611527565b60405180910390a3610ce560008383611352565b5050565b600073ffffffffffffffffffffffffffffffffffffffff168273ffffffffffffffffffffffffffffffffffffffff1603610d58576040517f08c379a0000000000000000000000000000000000000000000000000000000008152600401610d4f90611b51565b60405180910390fd5b610d648260008361134d565b60008060008473ffffffffffffffffffffffffffffffffffffffff1673ffffffffffffffffffffffffffffffffffffffff16815260200190815260200160002054905081811015610dea576040517f08c379a0000000000000000000000000000000000000000000000000000000008152600401610de190611be3565b60405180910390fd5b8181036000808573ffffffffffffffffffffffffffffffffffffffff1673ffffffffffffffffffffffffffffffffffffffff1681526020019081526020016000208190555081600260008282540392505081905550600073ffffffffffffffffffffffffffffffffffffffff168373ffffffffffffffffffffffffffffffffffffffff167fddf252ad1be2c89b69c2b068fc378daa952ba7f163c4a11628f55a4df523b3ef84604051610e9d9190611527565b60405180910390a3610eb183600084611352565b505050565b6000600560009054906101000a900473ffffffffffffffffffffffffffffffffffffffff16905081600560006101000a81548173ffffffffffffffffffffffffffffffffffffffff021916908373ffffffffffffffffffffffffffffffffffffffff1602179055508173ffffffffffffffffffffffffffffffffffffffff168173ffffffffffffffffffffffffffffffffffffffff167f8be0079c531659141344cd1fd0a4f28419497f9722a3daafe3b4186f6b6457e060405160405180910390a35050565b6000610f88848461075e565b90507fffffffffffffffffffffffffffffffffffffffffffffffffffffffffffffffff81146110025781811015610ff4576040517f08c379a0000000000000000000000000000000000000000000000000000000008152600401610feb90611c4f565b60405180910390fd5b6110018484848403610870565b5b50505050565b611010610a39565b6001600560146101000a81548160ff0219169083151502179055507f62e78cea01bee320cd4e420270b5ea74000d11b0c9f74754ebdbfc544b05a258611054610868565b6040516110619190611635565b60405180910390a1565b600080611076610868565b905061108381858561108e565b600191505092915050565b600073ffffffffffffffffffffffffffffffffffffffff168373ffffffffffffffffffffffffffffffffffffffff16036110fd576040517f08c379a00000000000000000000000000000000000000000000000000000000081526004016110f490611ce1565b60405180910390fd5b600073ffffffffffffffffffffffffffffffffffffffff168273ffffffffffffffffffffffffffffffffffffffff160361116c576040517f08c379a000000000000000000000000000000000000000000000000000000000815260040161116390611d73565b60405180910390fd5b61117783838361134d565b60008060008573ffffffffffffffffffffffffffffffffffffffff1673ffffffffffffffffffffffffffffffffffffffff168152602001908152602001600020549050818110156111fd576040517f08c379a00000000000000000000000000000000000000000000000000000000081526004016111f490611e05565b60405180910390fd5b8181036000808673ffffffffffffffffffffffffffffffffffffffff1673ffffffffffffffffffffffffffffffffffffffff16815260200190815260200160002081905550816000808573ffffffffffffffffffffffffffffffffffffffff1673ffffffffffffffffffffffffffffffffffffffff168152602001908152602001600020600082825401925050819055508273ffffffffffffffffffffffffffffffffffffffff168473ffffffffffffffffffffffffffffffffffffffff167fddf252ad1be2c89b69c2b068fc378daa952ba7f163c4a11628f55a4df523b3ef846040516112eb9190611527565b60405180910390a36112fe848484611352565b50505050565b61130c61056a565b61134b576040517f08c379a000000000000000000000000000000000000000000000000000000000815260040161134290611e71565b60405180910390fd5b565b505050565b505050565b600081519050919050565b600082825260208201905092915050565b60005b83811015611391578082015181840152602081019050611376565b60008484015250505050565b6000601f19601f8301169050919050565b60006113b982611357565b6113c38185611362565b93506113d3818560208601611373565b6113dc8161139d565b840191505092915050565b6000602082019050818103600083015261140181846113ae565b905092915050565b600080fd5b600073ffffffffffffffffffffffffffffffffffffffff82169050919050565b60006114398261140e565b9050919050565b6114498161142e565b811461145457600080fd5b50565b60008135905061146681611440565b92915050565b6000819050919050565b61147f8161146c565b811461148a57600080fd5b50565b60008135905061149c81611476565b92915050565b600080604083850312156114b9576114b8611409565b5b60006114c785828601611457565b92505060206114d88582860161148d565b9150509250929050565b60008115159050919050565b6114f7816114e2565b82525050565b600060208201905061151260008301846114ee565b92915050565b6115218161146c565b82525050565b600060208201905061153c6000830184611518565b92915050565b60008060006060848603121561155b5761155a611409565b5b600061156986828701611457565b935050602061157a86828701611457565b925050604061158b8682870161148d565b9150509250925092565b600060ff82169050919050565b6115ab81611595565b82525050565b60006020820190506115c660008301846115a2565b92915050565b6000602082840312156115e2576115e1611409565b5b60006115f08482850161148d565b91505092915050565b60006020828403121561160f5761160e611409565b5b600061161d84828501611457565b91505092915050565b61162f8161142e565b82525050565b600060208201905061164a6000830184611626565b92915050565b6000806040838503121561166757611666611409565b5b600061167585828601611457565b925050602061168685828601611457565b9150509250929050565b7f4e487b7100000000000000000000000000000000000000000000000000000000600052602260045260246000fd5b600060028204905060018216806116d757607f821691505b6020821081036116ea576116e9611690565b5b50919050565b7f4e487b7100000000000000000000000000000000000000000000000000000000600052601160045260246000fd5b600061172a8261146c565b91506117358361146c565b925082820190508082111561174d5761174c6116f0565b5b92915050565b7f45524332303a2064656372656173656420616c6c6f77616e63652062656c6f7760008201527f207a65726f000000000000000000000000000000000000000000000000000000602082015250565b60006117af602583611362565b91506117ba82611753565b604082019050919050565b600060208201905081810360008301526117de816117a2565b9050919050565b7f4f776e61626c653a206e6577206f776e657220697320746865207a65726f206160008201527f6464726573730000000000000000000000000000000000000000000000000000602082015250565b6000611841602683611362565b915061184c826117e5565b604082019050919050565b6000602082019050818103600083015261187081611834565b9050919050565b7f45524332303a20617070726f76652066726f6d20746865207a65726f2061646460008201527f7265737300000000000000000000000000000000000000000000000000000000602082015250565b60006118d3602483611362565b91506118de82611877565b604082019050919050565b60006020820190508181036000830152611902816118c6565b9050919050565b7f45524332303a20617070726f766520746f20746865207a65726f20616464726560008201527f7373000000000000000000000000000000000000000000000000000000000000602082015250565b6000611965602283611362565b915061197082611909565b604082019050919050565b6000602082019050818103600083015261199481611958565b9050919050565b7f5061757361626c653a2070617573656400000000000000000000000000000000600082015250565b60006119d1601083611362565b91506119dc8261199b565b602082019050919050565b60006020820190508181036000830152611a00816119c4565b9050919050565b7f4f776e61626c653a2063616c6c6572206973206e6f7420746865206f776e6572600082015250565b6000611a3d602083611362565b9150611a4882611a07565b602082019050919050565b60006020820190508181036000830152611a6c81611a30565b9050919050565b7f45524332303a206d696e7420746f20746865207a65726f206164647265737300600082015250565b6000611aa9601f83611362565b9150611ab482611a73565b602082019050919050565b60006020820190508181036000830152611ad881611a9c565b9050919050565b7f45524332303a206275726e2066726f6d20746865207a65726f2061646472657360008201527f7300000000000000000000000000000000000000000000000000000000000000602082015250565b6000611b3b602183611362565b9150611b4682611adf565b604082019050919050565b60006020820190508181036000830152611b6a81611b2e565b9050919050565b7f45524332303a206275726e20616d6f756e7420657863656564732062616c616e60008201527f6365000000000000000000000000000000000000000000000000000000000000602082015250565b6000611bcd602283611362565b9150611bd882611b71565b604082019050919050565b60006020820190508181036000830152611bfc81611bc0565b9050919050565b7f45524332303a20696e73756666696369656e7420616c6c6f77616e6365000000600082015250565b6000611c39601d83611362565b9150611c4482611c03565b602082019050919050565b60006020820190508181036000830152611c6881611c2c565b9050919050565b7f45524332303a207472616e736665722066726f6d20746865207a65726f20616460008201527f6472657373000000000000000000000000000000000000000000000000000000602082015250565b6000611ccb602583611362565b9150611cd682611c6f565b604082019050919050565b60006020820190508181036000830152611cfa81611cbe565b9050919050565b7f45524332303a207472616e7366657220746f20746865207a65726f206164647260008201527f6573730000000000000000000000000000000000000000000000000000000000602082015250565b6000611d5d602383611362565b9150611d6882611d01565b604082019050919050565b60006020820190508181036000830152611d8c81611d50565b9050919050565b7f45524332303a207472616e7366657220616d6f756e742065786365656473206260008201527f616c616e63650000000000000000000000000000000000000000000000000000602082015250565b6000611def602683611362565b9150611dfa82611d93565b604082019050919050565b60006020820190508181036000830152611e1e81611de2565b9050919050565b7f5061757361626c653a206e6f7420706175736564000000000000000000000000600082015250565b6000611e5b601483611362565b9150611e6682611e25565b602082019050919050565b60006020820190508181036000830152611e8a81611e4e565b905091905056fea2646970667358221220e2863f408e99bb0a98d9015c1cf4da0a0cc6263d30da6b13b7f5f4e4c494469864736f6c634300081c0033",
          "opcodes": "PUSH1 0x80 PUSH1 0x40 MSTORE CALLVALUE DUP1 ISZERO PUSH2 0x10 JUMPI PUSH1 0x0 DUP1 REVERT JUMPDEST POP PUSH1 0x40 MLOAD PUSH2 0x2A5A CODESIZE SUB DUP1 PUSH2 0x2A5A DUP4 CODECOPY DUP2 DUP2 ADD PUSH1 0x40 MSTORE DUP2 ADD SWAP1 PUSH2 0x32 SWAP2 SWAP1 PUSH2 0x525 JUMP JUMPDEST DUP4 DUP4 DUP2 PUSH1 0x3 SWAP1 DUP2 PUSH2 0x43 SWAP2 SWAP1 PUSH2 0x7DB JUMP JUMPDEST POP DUP1 PUSH1 0x4 SWAP1 DUP2 PUSH2 0x53 SWAP2 SWAP1 PUSH2 0x7DB JUMP JUMPDEST POP POP POP PUSH2 0x72 PUSH2 0x67 PUSH2 0xD9 PUSH1 0x20 SHL PUSH1 0x20 SHR JUMP JUMPDEST PUSH2 0xE1 PUSH1 0x20 SHL PUSH1 0x20 SHR JUMP JUMPDEST PUSH1 0x0 PUSH1 0x5 PUSH1 0x14 PUSH2 0x100 EXP DUP2 SLOAD DUP2 PUSH1 0xFF MUL NOT AND SWAP1 DUP4 ISZERO ISZERO MUL OR SWAP1 SSTORE POP PUSH2 0x9C DUP2 PUSH2 0xE1 PUSH1 0x20 SHL PUSH1 0x20 SHR JUMP JUMPDEST PUSH2 0xD0 DUP2 PUSH2 0xAE PUSH2 0x1A7 PUSH1 0x20 SHL PUSH1 0x20 SHR JUMP JUMPDEST PUSH1 0xA PUSH2 0xBA SWAP2 SWAP1 PUSH2 0xA1C JUMP JUMPDEST DUP5 PUSH2 0xC5 SWAP2 SWAP1 PUSH2 0xA67 JUMP JUMPDEST PUSH2 0x1B0 PUSH1 0x20 SHL PUSH1 0x20 SHR JUMP JUMPDEST POP POP POP POP PUSH2 0xB84 JUMP JUMPDEST PUSH1 0x0 CALLER SWAP1 POP SWAP1 JUMP JUMPDEST PUSH1 0x0 PUSH1 0x5 PUSH1 0x0 SWAP1 SLOAD SWAP1 PUSH2 0x100 EXP SWAP1 DIV PUSH20 0xFFFFFFFFFFFFFFFFFFFFFFFFFFFFFFFFFFFFFFFF AND SWAP1 POP DUP2 PUSH1 0x5 PUSH1 0x0 PUSH2 0x100 EXP DUP2 SLOAD DUP2 PUSH20 0xFFFFFFFFFFFFFFFFFFFFFFFFFFFFFFFFFFFFFFFF MUL NOT AND SWAP1 DUP4 PUSH20 0xFFFFFFFFFFFFFFFFFFFFFFFFFFFFFFFFFFFFFFFF AND MUL OR SWAP1 SSTORE POP DUP2 PUSH20 0xFFFFFFFFFFFFFFFFFFFFFFFFFFFFFFFFFFFFFFFF AND DUP2 PUSH20 0xFFFFFFFFFFFFFFFFFFFFFFFFFFFFFFFFFFFFFFFF AND PUSH32 0x8BE0079C531659141344CD1FD0A4F28419497F9722A3DAAFE3B4186F6B6457E0 PUSH1 0x40 MLOAD PUSH1 0x40 MLOAD DUP1 SWAP2 SUB SWAP1 LOG3 POP POP JUMP JUMPDEST PUSH1 0x0 PUSH1 0x12 SWAP1 POP SWAP1 JUMP JUMPDEST PUSH1 0x0 PUSH20 0xFFFFFFFFFFFFFFFFFFFFFFFFFFFFFFFFFFFFFFFF AND DUP3 PUSH20 0xFFFFFFFFFFFFFFFFFFFFFFFFFFFFFFFFFFFFFFFF AND SUB PUSH2 0x21F JUMPI PUSH1 0x40 MLOAD PUSH32 0x8C379A000000000000000000000000000000000000000000000000000000000 DUP2 MSTORE PUSH1 0x4 ADD PUSH2 0x216 SWAP1 PUSH2 0xB06 JUMP JUMPDEST PUSH1 0x40 MLOAD DUP1 SWAP2 SUB SWAP1 REVERT JUMPDEST PUSH2 0x231 PUSH1 0x0 DUP4 DUP4 PUSH2 0x312 PUSH1 0x20 SHL PUSH1 0x20 SHR JUMP JUMPDEST DUP1 PUSH1 0x2 PUSH1 0x0 DUP3 DUP3 SLOAD PUSH2 0x243 SWAP2 SWAP1 PUSH2 0xB26 JUMP JUMPDEST SWAP3 POP POP DUP2 SWAP1 SSTORE POP DUP1 PUSH1 0x0 DUP1 DUP5 PUSH20 0xFFFFFFFFFFFFFFFFFFFFFFFFFFFFFFFFFFFFFFFF AND PUSH20 0xFFFFFFFFFFFFFFFFFFFFFFFFFFFFFFFFFFFFFFFF AND DUP2 MSTORE PUSH1 0x20 ADD SWAP1 DUP2 MSTORE PUSH1 0x20 ADD PUSH1 0x0 KECCAK256 PUSH1 0x0 DUP3 DUP3 SLOAD ADD SWAP3 POP POP DUP2 SWAP1 SSTORE POP DUP2 PUSH20 0xFFFFFFFFFFFFFFFFFFFFFFFFFFFFFFFFFFFFFFFF AND PUSH1 0x0 PUSH20 0xFFFFFFFFFFFFFFFFFFFFFFFFFFFFFFFFFFFFFFFF AND PUSH32 0xDDF252AD1BE2C89B69C2B068FC378DAA952BA7F163C4A11628F55A4DF523B3EF DUP4 PUSH1 0x40 MLOAD PUSH2 0x2F4 SWAP2 SWAP1 PUSH2 0xB69 JUMP JUMPDEST PUSH1 0x40 MLOAD DUP1 SWAP2 SUB SWAP1 LOG3 PUSH2 0x30E PUSH1 0x0 DUP4 DUP4 PUSH2 0x317 PUSH1 0x20 SHL PUSH1 0x20 SHR JUMP JUMPDEST POP POP JUMP JUMPDEST POP POP POP JUMP JUMPDEST POP POP POP JUMP JUMPDEST PUSH1 0x0 PUSH1 0x40 MLOAD SWAP1 POP SWAP1 JUMP JUMPDEST PUSH1 0x0 DUP1 REVERT JUMPDEST PUSH1 0x0 DUP1 REVERT JUMPDEST PUSH1 0x0 DUP1 REVERT JUMPDEST PUSH1 0x0 DUP1 REVERT JUMPDEST PUSH1 0x0 PUSH1 0x1F NOT PUSH1 0x1F DUP4 ADD AND SWAP1 POP SWAP2 SWAP1 POP JUMP JUMPDEST PUSH32 0x4E487B7100000000000000000000000000000000000000000000000000000000 PUSH1 0x0 MSTORE PUSH1 0x41 PUSH1 0x4 MSTORE PUSH1 0x24 PUSH1 0x0 REVERT JUMPDEST PUSH2 0x383 DUP3 PUSH2 0x33A JUMP JUMPDEST DUP2 ADD DUP2 DUP2 LT PUSH8 0xFFFFFFFFFFFFFFFF DUP3 GT OR ISZERO PUSH2 0x3A2 JUMPI PUSH2 0x3A1 PUSH2 0x34B JUMP JUMPDEST JUMPDEST DUP1 PUSH1 0x40 MSTORE POP POP POP JUMP JUMPDEST PUSH1 0x0 PUSH2 0x3B5 PUSH2 0x31C JUMP JUMPDEST SWAP1 POP PUSH2 0x3C1 DUP3 DUP3 PUSH2 0x37A JUMP JUMPDEST SWAP2 SWAP1 POP JUMP JUMPDEST PUSH1 0x0 PUSH8 0xFFFFFFFFFFFFFFFF DUP3 GT ISZERO PUSH2 0x3E1 JUMPI PUSH2 0x3E0 PUSH2 0x34B JUMP JUMPDEST JUMPDEST PUSH2 0x3EA DUP3 PUSH2 0x33A JUMP JUMPDEST SWAP1 POP PUSH1 0x20 DUP2 ADD SWAP1 POP SWAP2 SWAP1 POP JUMP JUMPDEST PUSH1 0x0 JUMPDEST DUP4 DUP2 LT ISZERO PUSH2 0x415 JUMPI DUP1 DUP3 ADD MLOAD DUP2 DUP5 ADD MSTORE PUSH1 0x20 DUP2 ADD SWAP1 POP PUSH2 0x3FA JUMP JUMPDEST PUSH1 0x0 DUP5 DUP5 ADD MSTORE POP POP POP POP JUMP JUMPDEST PUSH1 0x0 PUSH2 0x434 PUSH2 0x42F DUP5 PUSH2 0x3C6 JUMP JUMPDEST PUSH2 0x3AB JUMP JUMPDEST SWAP1 POP DUP3 DUP2 MSTORE PUSH1 0x20 DUP2 ADD DUP5 DUP5 DUP5 ADD GT ISZERO PUSH2 0x450 JUMPI PUSH2 0x44F PUSH2 0x335 JUMP JUMPDEST JUMPDEST PUSH2 0x45B DUP5 DUP3 DUP6 PUSH2 0x3F7 JUMP JUMPDEST POP SWAP4 SWAP3 POP POP POP JUMP JUMPDEST PUSH1 0x0 DUP3 PUSH1 0x1F DUP4 ADD SLT PUSH2 0x478 JUMPI PUSH2 0x477 PUSH2 0x330 JUMP JUMPDEST JUMPDEST DUP2 MLOAD PUSH2 0x488 DUP5 DUP3 PUSH1 0x20 DUP7 ADD PUSH2 0x421 JUMP JUMPDEST SWAP2 POP POP SWAP3 SWAP2 POP POP JUMP JUMPDEST PUSH1 0x0 DUP2 SWAP1 POP SWAP2 SWAP1 POP JUMP JUMPDEST PUSH2 0x4A4 DUP2 PUSH2 0x491 JUMP JUMPDEST DUP2 EQ PUSH2 0x4AF JUMPI PUSH1 0x0 DUP1 REVERT JUMPDEST POP JUMP JUMPDEST PUSH1 0x0 DUP2 MLOAD SWAP1 POP PUSH2 0x4C1 DUP2 PUSH2 0x49B JUMP JUMPDEST SWAP3 SWAP2 POP POP JUMP JUMPDEST PUSH1 0x0 PUSH20 0xFFFFFFFFFFFFFFFFFFFFFFFFFFFFFFFFFFFFFFFF DUP3 AND SWAP1 POP SWAP2 SWAP1 POP JUMP JUMPDEST PUSH1 0x0 PUSH2 0x4F2 DUP3 PUSH2 0x4C7 JUMP JUMPDEST SWAP1 POP SWAP2 SWAP1 POP JUMP JUMPDEST PUSH2 0x502 DUP2 PUSH2 0x4E7 JUMP JUMPDEST DUP2 EQ PUSH2 0x50D JUMPI PUSH1 0x0 DUP1 REVERT JUMPDEST POP JUMP JUMPDEST PUSH1 0x0 DUP2 MLOAD SWAP1 POP PUSH2 0x51F DUP2 PUSH2 0x4F9 JUMP JUMPDEST SWAP3 SWAP2 POP POP JUMP JUMPDEST PUSH1 0x0 DUP1 PUSH1 0x0 DUP1 PUSH1 0x80 DUP6 DUP8 SUB SLT ISZERO PUSH2 0x53F JUMPI PUSH2 0x53E PUSH2 0x326 JUMP JUMPDEST JUMPDEST PUSH1 0x0 DUP6 ADD MLOAD PUSH8 0xFFFFFFFFFFFFFFFF DUP2 GT ISZERO PUSH2 0x55D JUMPI PUSH2 0x55C PUSH2 0x32B JUMP JUMPDEST JUMPDEST PUSH2 0x569 DUP8 DUP3 DUP9 ADD PUSH2 0x463 JUMP JUMPDEST SWAP5 POP POP PUSH1 0x20 DUP6 ADD MLOAD PUSH8 0xFFFFFFFFFFFFFFFF DUP2 GT ISZERO PUSH2 0x58A JUMPI PUSH2 0x589 PUSH2 0x32B JUMP JUMPDEST JUMPDEST PUSH2 0x596 DUP8 DUP3 DUP9 ADD PUSH2 0x463 JUMP JUMPDEST SWAP4 POP POP PUSH1 0x40 PUSH2 0x5A7 DUP8 DUP3 DUP9 ADD PUSH2 0x4B2 JUMP JUMPDEST SWAP3 POP POP PUSH1 0x60 PUSH2 0x5B8 DUP8 DUP3 DUP9 ADD PUSH2 0x510 JUMP JUMPDEST SWAP2 POP POP SWAP3 SWAP6 SWAP2 SWAP5 POP SWAP3 POP JUMP JUMPDEST PUSH1 0x0 DUP2 MLOAD SWAP1 POP SWAP2 SWAP1 POP JUMP JUMPDEST PUSH32 0x4E487B7100000000000000000000000000000000000000000000000000000000 PUSH1 0x0 MSTORE PUSH1 0x22 PUSH1 0x4 MSTORE PUSH1 0x24 PUSH1 0x0 REVERT JUMPDEST PUSH1 0x0 PUSH1 0x2 DUP3 DIV SWAP1 POP PUSH1 0x1 DUP3 AND DUP1 PUSH2 0x616 JUMPI PUSH1 0x7F DUP3 AND SWAP2 POP JUMPDEST PUSH1 0x20 DUP3 LT DUP2 SUB PUSH2 0x629 JUMPI PUSH2 0x628 PUSH2 0x5CF JUMP JUMPDEST JUMPDEST POP SWAP2 SWAP1 POP JUMP JUMPDEST PUSH1 0x0 DUP2 SWAP1 POP DUP2 PUSH1 0x0 MSTORE PUSH1 0x20 PUSH1 0x0 KECCAK256 SWAP1 POP SWAP2 SWAP1 POP JUMP JUMPDEST PUSH1 0x0 PUSH1 0x20 PUSH1 0x1F DUP4 ADD DIV SWAP1 POP SWAP2 SWAP1 POP JUMP JUMPDEST PUSH1 0x0 DUP3 DUP3 SHL SWAP1 POP SWAP3 SWAP2 POP POP JUMP JUMPDEST PUSH1 0x0 PUSH1 0x8 DUP4 MUL PUSH2 0x691 PUSH32 0xFFFFFFFFFFFFFFFFFFFFFFFFFFFFFFFFFFFFFFFFFFFFFFFFFFFFFFFFFFFFFFFF DUP3 PUSH2 0x654 JUMP JUMPDEST PUSH2 0x69B DUP7 DUP4 PUSH2 0x654 JUMP JUMPDEST SWAP6 POP DUP1 NOT DUP5 AND SWAP4 POP DUP1 DUP7 AND DUP5 OR SWAP3 POP POP POP SWAP4 SWAP3 POP POP POP JUMP JUMPDEST PUSH1 0x0 DUP2 SWAP1 POP SWAP2 SWAP1 POP JUMP JUMPDEST PUSH1 0x0 PUSH2 0x6D8 PUSH2 0x6D3 PUSH2 0x6CE DUP5 PUSH2 0x491 JUMP JUMPDEST PUSH2 0x6B3 JUMP JUMPDEST PUSH2 0x491 JUMP JUMPDEST SWAP1 POP SWAP2 SWAP1 POP JUMP JUMPDEST PUSH1 0x0 DUP2 SWAP1 POP SWAP2 SWAP1 POP JUMP JUMPDEST PUSH2 0x6F2 DUP4 PUSH2 0x6BD JUMP JUMPDEST PUSH2 0x706 PUSH2 0x6FE DUP3 PUSH2 0x6DF JUMP JUMPDEST DUP5 DUP5 SLOAD PUSH2 0x661 JUMP JUMPDEST DUP3 SSTORE POP POP POP POP JUMP JUMPDEST PUSH1 0x0 SWAP1 JUMP JUMPDEST PUSH2 0x71B PUSH2 0x70E JUMP JUMPDEST PUSH2 0x726 DUP2 DUP5 DUP5 PUSH2 0x6E9 JUMP JUMPDEST POP POP POP JUMP JUMPDEST JUMPDEST DUP2 DUP2 LT ISZERO PUSH2 0x74A JUMPI PUSH2 0x73F PUSH1 0x0 DUP3 PUSH2 0x713 JUMP JUMPDEST PUSH1 0x1 DUP2 ADD SWAP1 POP PUSH2 0x72C JUMP JUMPDEST POP POP JUMP JUMPDEST PUSH1 0x1F DUP3 GT ISZERO PUSH2 0x78F JUMPI PUSH2 0x760 DUP2 PUSH2 0x62F JUMP JUMPDEST PUSH2 0x769 DUP5 PUSH2 0x644 JUMP JUMPDEST DUP2 ADD PUSH1 0x20 DUP6 LT ISZERO PUSH2 0x778 JUMPI DUP2 SWAP1 POP JUMPDEST PUSH2 0x78C PUSH2 0x784 DUP6 PUSH2 0x644 JUMP JUMPDEST DUP4 ADD DUP3 PUSH2 0x72B JUMP JUMPDEST POP POP JUMPDEST POP POP POP JUMP JUMPDEST PUSH1 0x0 DUP3 DUP3 SHR SWAP1 POP SWAP3 SWAP2 POP POP JUMP JUMPDEST PUSH1 0x0 PUSH2 0x7B2 PUSH1 0x0 NOT DUP5 PUSH1 0x8 MUL PUSH2 0x794 JUMP JUMPDEST NOT DUP1 DUP4 AND SWAP2 POP POP SWAP3 SWAP2 POP POP JUMP JUMPDEST PUSH1 0x0 PUSH2 0x7CB DUP4 DUP4 PUSH2 0x7A1 JUMP JUMPDEST SWAP2 POP DUP3 PUSH1 0x2 MUL DUP3 OR SWAP1 POP SWAP3 SWAP2 POP POP JUMP JUMPDEST PUSH2 0x7E4 DUP3 PUSH2 0x5C4 JUMP JUMPDEST PUSH8 0xFFFFFFFFFFFFFFFF DUP2 GT ISZERO PUSH2 0x7FD JUMPI PUSH2 0x7FC PUSH2 0x34B JUMP JUMPDEST JUMPDEST PUSH2 0x807 DUP3 SLOAD PUSH2 0x5FE JUMP JUMPDEST PUSH2 0x812 DUP3 DUP3 DUP6 PUSH2 0x74E JUMP JUMPDEST PUSH1 0x0 PUSH1 0x20 SWAP1 POP PUSH1 0x1F DUP4 GT PUSH1 0x1 DUP2 EQ PUSH2 0x845 JUMPI PUSH1 0x0 DUP5 ISZERO PUSH2 0x833 JUMPI DUP3 DUP8 ADD MLOAD SWAP1 POP JUMPDEST PUSH2 0x83D DUP6 DUP3 PUSH2 0x7BF JUMP JUMPDEST DUP7 SSTORE POP PUSH2 0x8A5 JUMP JUMPDEST PUSH1 0x1F NOT DUP5 AND PUSH2 0x853 DUP7 PUSH2 0x62F JUMP JUMPDEST PUSH1 0x0 JUMPDEST DUP3 DUP2 LT ISZERO PUSH2 0x87B JUMPI DUP5 DUP10 ADD MLOAD DUP3 SSTORE PUSH1 0x1 DUP3 ADD SWAP2 POP PUSH1 0x20 DUP6 ADD SWAP5 POP PUSH1 0x20 DUP2 ADD SWAP1 POP PUSH2 0x856 JUMP JUMPDEST DUP7 DUP4 LT ISZERO PUSH2 0x898 JUMPI DUP5 DUP10 ADD MLOAD PUSH2 0x894 PUSH1 0x1F DUP10 AND DUP3 PUSH2 0x7A1 JUMP JUMPDEST DUP4 SSTORE POP JUMPDEST PUSH1 0x1 PUSH1 0x2 DUP9 MUL ADD DUP9 SSTORE POP POP POP JUMPDEST POP POP POP POP POP POP JUMP JUMPDEST PUSH32 0x4E487B7100000000000000000000000000000000000000000000000000000000 PUSH1 0x0 MSTORE PUSH1 0x11 PUSH1 0x4 MSTORE PUSH1 0x24 PUSH1 0x0 REVERT JUMPDEST PUSH1 0x0 DUP2 PUSH1 0x1 SHR SWAP1 POP SWAP2 SWAP1 POP JUMP JUMPDEST PUSH1 0x0 DUP1 DUP3 SWAP2 POP DUP4 SWAP1 POP JUMPDEST PUSH1 0x1 DUP6 GT ISZERO PUSH2 0x933 JUMPI DUP1 DUP7 DIV DUP2 GT ISZERO PUSH2 0x90F JUMPI PUSH2 0x90E PUSH2 0x8AD JUMP JUMPDEST JUMPDEST PUSH1 0x1 DUP6 AND ISZERO PUSH2 0x91E JUMPI DUP1 DUP3 MUL SWAP2 POP JUMPDEST DUP1 DUP2 MUL SWAP1 POP PUSH2 0x92C DUP6 PUSH2 0x8DC JUMP JUMPDEST SWAP5 POP PUSH2 0x8F3 JUMP JUMPDEST SWAP5 POP SWAP5 SWAP3 POP POP POP JUMP JUMPDEST PUSH1 0x0 DUP3 PUSH2 0x94C JUMPI PUSH1 0x1 SWAP1 POP PUSH2 0xA08 JUMP JUMPDEST DUP2 PUSH2 0x95A JUMPI PUSH1 0x0 SWAP1 POP PUSH2 0xA08 JUMP JUMPDEST DUP2 PUSH1 0x1 DUP2 EQ PUSH2 0x970 JUMPI PUSH1 0x2 DUP2 EQ PUSH2 0x97A JUMPI PUSH2 0x9A9 JUMP JUMPDEST PUSH1 0x1 SWAP2 POP POP PUSH2 0xA08 JUMP JUMPDEST PUSH1 0xFF DUP5 GT ISZERO PUSH2 0x98C JUMPI PUSH2 0x98B PUSH2 0x8AD JUMP JUMPDEST JUMPDEST DUP4 PUSH1 0x2 EXP SWAP2 POP DUP5 DUP3 GT ISZERO PUSH2 0x9A3 JUMPI PUSH2 0x9A2 PUSH2 0x8AD JUMP JUMPDEST JUMPDEST POP PUSH2 0xA08 JUMP JUMPDEST POP PUSH1 0x20 DUP4 LT PUSH2 0x133 DUP4 LT AND PUSH1 0x4E DUP5 LT PUSH1 0xB DUP5 LT AND OR ISZERO PUSH2 0x9DE JUMPI DUP3 DUP3 EXP SWAP1 POP DUP4 DUP2 GT ISZERO PUSH2 0x9D9 JUMPI PUSH2 0x9D8 PUSH2 0x8AD JUMP JUMPDEST JUMPDEST PUSH2 0xA08 JUMP JUMPDEST PUSH2 0x9EB DUP5 DUP5 DUP5 PUSH1 0x1 PUSH2 0x8E9 JUMP JUMPDEST SWAP3 POP SWAP1 POP DUP2 DUP5 DIV DUP2 GT ISZERO PUSH2 0xA02 JUMPI PUSH2 0xA01 PUSH2 0x8AD JUMP JUMPDEST JUMPDEST DUP2 DUP2 MUL SWAP1 POP JUMPDEST SWAP4 SWAP3 POP POP POP JUMP JUMPDEST PUSH1 0x0 PUSH1 0xFF DUP3 AND SWAP1 POP SWAP2 SWAP1 POP JUMP JUMPDEST PUSH1 0x0 PUSH2 0xA27 DUP3 PUSH2 0x491 JUMP JUMPDEST SWAP2 POP PUSH2 0xA32 DUP4 PUSH2 0xA0F JUMP JUMPDEST SWAP3 POP PUSH2 0xA5F PUSH32 0xFFFFFFFFFFFFFFFFFFFFFFFFFFFFFFFFFFFFFFFFFFFFFFFFFFFFFFFFFFFFFFFF DUP5 DUP5 PUSH2 0x93C JUMP JUMPDEST SWAP1 POP SWAP3 SWAP2 POP POP JUMP JUMPDEST PUSH1 0x0 PUSH2 0xA72 DUP3 PUSH2 0x491 JUMP JUMPDEST SWAP2 POP PUSH2 0xA7D DUP4 PUSH2 0x491 JUMP JUMPDEST SWAP3 POP DUP3 DUP3 MUL PUSH2 0xA8B DUP2 PUSH2 0x491 JUMP JUMPDEST SWAP2 POP DUP3 DUP3 DIV DUP5 EQ DUP4 ISZERO OR PUSH2 0xAA2 JUMPI PUSH2 0xAA1 PUSH2 0x8AD JUMP JUMPDEST JUMPDEST POP SWAP3 SWAP2 POP POP JUMP JUMPDEST PUSH1 0x0 DUP3 DUP3 MSTORE PUSH1 0x20 DUP3 ADD SWAP1 POP SWAP3 SWAP2 POP POP JUMP JUMPDEST PUSH32 0x45524332303A206D696E7420746F20746865207A65726F206164647265737300 PUSH1 0x0 DUP3 ADD MSTORE POP JUMP JUMPDEST PUSH1 0x0 PUSH2 0xAF0 PUSH1 0x1F DUP4 PUSH2 0xAA9 JUMP JUMPDEST SWAP2 POP PUSH2 0xAFB DUP3 PUSH2 0xABA JUMP JUMPDEST PUSH1 0x20 DUP3 ADD SWAP1 POP SWAP2 SWAP1 POP JUMP JUMPDEST PUSH1 0x0 PUSH1 0x20 DUP3 ADD SWAP1 POP DUP2 DUP2 SUB PUSH1 0x0 DUP4 ADD MSTORE PUSH2 0xB1F DUP2 PUSH2 0xAE3 JUMP JUMPDEST SWAP1 POP SWAP2 SWAP1 POP JUMP JUMPDEST PUSH1 0x0 PUSH2 0xB31 DUP3 PUSH2 0x491 JUMP JUMPDEST SWAP2 POP PUSH2 0xB3C DUP4 PUSH2 0x491 JUMP JUMPDEST SWAP3 POP DUP3 DUP3 ADD SWAP1 POP DUP1 DUP3 GT ISZERO PUSH2 0xB54 JUMPI PUSH2 0xB53 PUSH2 0x8AD JUMP JUMPDEST JUMPDEST SWAP3 SWAP2 POP POP JUMP JUMPDEST PUSH2 0xB63 DUP2 PUSH2 0x491 JUMP JUMPDEST DUP3 MSTORE POP POP JUMP JUMPDEST PUSH1 0x0 PUSH1 0x20 DUP3 ADD SWAP1 POP PUSH2 0xB7E PUSH1 0x0 DUP4 ADD DUP5 PUSH2 0xB5A JUMP JUMPDEST SWAP3 SWAP2 POP POP JUMP JUMPDEST PUSH2 0x1EC7 DUP1 PUSH2 0xB93 PUSH1 0x0 CODECOPY PUSH1 0x0 RETURN INVALID PUSH1 0x80 PUSH1 0x40 MSTORE CALLVALUE DUP1 ISZERO PUSH2 0x10 JUMPI PUSH1 0x0 DUP1 REVERT JUMPDEST POP PUSH1 0x4 CALLDATASIZE LT PUSH2 0x12C JUMPI PUSH1 0x0 CALLDATALOAD PUSH1 0xE0 SHR DUP1 PUSH4 0x70A08231 GT PUSH2 0xAD JUMPI DUP1 PUSH4 0x95D89B41 GT PUSH2 0x71 JUMPI DUP1 PUSH4 0x95D89B41 EQ PUSH2 0x2F9 JUMPI DUP1 PUSH4 0xA457C2D7 EQ PUSH2 0x317 JUMPI DUP1 PUSH4 0xA9059CBB EQ PUSH2 0x347 JUMPI DUP1 PUSH4 0xDD62ED3E EQ PUSH2 0x377 JUMPI DUP1 PUSH4 0xF2FDE38B EQ PUSH2 0x3A7 JUMPI PUSH2 0x12C JUMP JUMPDEST DUP1 PUSH4 0x70A08231 EQ PUSH2 0x27B JUMPI DUP1 PUSH4 0x715018A6 EQ PUSH2 0x2AB JUMPI DUP1 PUSH4 0x79CC6790 EQ PUSH2 0x2B5 JUMPI DUP1 PUSH4 0x8456CB59 EQ PUSH2 0x2D1 JUMPI DUP1 PUSH4 0x8DA5CB5B EQ PUSH2 0x2DB JUMPI PUSH2 0x12C JUMP JUMPDEST DUP1 PUSH4 0x39509351 GT PUSH2 0xF4 JUMPI DUP1 PUSH4 0x39509351 EQ PUSH2 0x1EB JUMPI DUP1 PUSH4 0x3F4BA83A EQ PUSH2 0x21B JUMPI DUP1 PUSH4 0x40C10F19 EQ PUSH2 0x225 JUMPI DUP1 PUSH4 0x42966C68 EQ PUSH2 0x241 JUMPI DUP1 PUSH4 0x5C975ABB EQ PUSH2 0x25D JUMPI PUSH2 0x12C JUMP JUMPDEST DUP1 PUSH4 0x6FDDE03 EQ PUSH2 0x131 JUMPI DUP1 PUSH4 0x95EA7B3 EQ PUSH2 0x14F JUMPI DUP1 PUSH4 0x18160DDD EQ PUSH2 0x17F JUMPI DUP1 PUSH4 0x23B872DD EQ PUSH2 0x19D JUMPI DUP1 PUSH4 0x313CE567 EQ PUSH2 0x1CD JUMPI JUMPDEST PUSH1 0x0 DUP1 REVERT JUMPDEST PUSH2 0x139 PUSH2 0x3C3 JUMP JUMPDEST PUSH1 0x40 MLOAD PUSH2 0x146 SWAP2 SWAP1 PUSH2 0x13E7 JUMP JUMPDEST PUSH1 0x40 MLOAD DUP1 SWAP2 SUB SWAP1 RETURN JUMPDEST PUSH2 0x169 PUSH1 0x4 DUP1 CALLDATASIZE SUB DUP2 ADD SWAP1 PUSH2 0x164 SWAP2 SWAP1 PUSH2 0x14A2 JUMP JUMPDEST PUSH2 0x455 JUMP JUMPDEST PUSH1 0x40 MLOAD PUSH2 0x176 SWAP2 SWAP1 PUSH2 0x14FD JUMP JUMPDEST PUSH1 0x40 MLOAD DUP1 SWAP2 SUB SWAP1 RETURN JUMPDEST PUSH2 0x187 PUSH2 0x478 JUMP JUMPDEST PUSH1 0x40 MLOAD PUSH2 0x194 SWAP2 SWAP1 PUSH2 0x1527 JUMP JUMPDEST PUSH1 0x40 MLOAD DUP1 SWAP2 SUB SWAP1 RETURN JUMPDEST PUSH2 0x1B7 PUSH1 0x4 DUP1 CALLDATASIZE SUB DUP2 ADD SWAP1 PUSH2 0x1B2 SWAP2 SWAP1 PUSH2 0x1542 JUMP JUMPDEST PUSH2 0x482 JUMP JUMPDEST PUSH1 0x40 MLOAD PUSH2 0x1C4 SWAP2 SWAP1 PUSH2 0x14FD JUMP JUMPDEST PUSH1 0x40 MLOAD DUP1 SWAP2 SUB SWAP1 RETURN JUMPDEST PUSH2 0x1D5 PUSH2 0x4A0 JUMP JUMPDEST PUSH1 0x40 MLOAD PUSH2 0x1E2 SWAP2 SWAP1 PUSH2 0x15B1 JUMP JUMPDEST PUSH1 0x40 MLOAD DUP1 SWAP2 SUB SWAP1 RETURN JUMPDEST PUSH2 0x205 PUSH1 0x4 DUP1 CALLDATASIZE SUB DUP2 ADD SWAP1 PUSH2 0x200 SWAP2 SWAP1 PUSH2 0x14A2 JUMP JUMPDEST PUSH2 0x4A9 JUMP JUMPDEST PUSH1 0x40 MLOAD PUSH2 0x212 SWAP2 SWAP1 PUSH2 0x14FD JUMP JUMPDEST PUSH1 0x40 MLOAD DUP1 SWAP2 SUB SWAP1 RETURN JUMPDEST PUSH2 0x223 PUSH2 0x4E0 JUMP JUMPDEST STOP JUMPDEST PUSH2 0x23F PUSH1 0x4 DUP1 CALLDATASIZE SUB DUP2 ADD SWAP1 PUSH2 0x23A SWAP2 SWAP1 PUSH2 0x14A2 JUMP JUMPDEST PUSH2 0x4F2 JUMP JUMPDEST STOP JUMPDEST PUSH2 0x25B PUSH1 0x4 DUP1 CALLDATASIZE SUB DUP2 ADD SWAP1 PUSH2 0x256 SWAP2 SWAP1 PUSH2 0x15CC JUMP JUMPDEST PUSH2 0x556 JUMP JUMPDEST STOP JUMPDEST PUSH2 0x265 PUSH2 0x56A JUMP JUMPDEST PUSH1 0x40 MLOAD PUSH2 0x272 SWAP2 SWAP1 PUSH2 0x14FD JUMP JUMPDEST PUSH1 0x40 MLOAD DUP1 SWAP2 SUB SWAP1 RETURN JUMPDEST PUSH2 0x295 PUSH1 0x4 DUP1 CALLDATASIZE SUB DUP2 ADD SWAP1 PUSH2 0x290 SWAP2 SWAP1 PUSH2 0x15F9 JUMP JUMPDEST PUSH2 0x581 JUMP JUMPDEST PUSH1 0x40 MLOAD PUSH2 0x2A2 SWAP2 SWAP1 PUSH2 0x1527 JUMP JUMPDEST PUSH1 0x40 MLOAD DUP1 SWAP2 SUB SWAP1 RETURN JUMPDEST PUSH2 0x2B3 PUSH2 0x5C9 JUMP JUMPDEST STOP JUMPDEST PUSH2 0x2CF PUSH1 0x4 DUP1 CALLDATASIZE SUB DUP2 ADD SWAP1 PUSH2 0x2CA SWAP2 SWAP1 PUSH2 0x14A2 JUMP JUMPDEST PUSH2 0x5DD JUMP JUMPDEST STOP JUMPDEST PUSH2 0x2D9 PUSH2 0x5FD JUMP JUMPDEST STOP JUMPDEST PUSH2 0x2E3 PUSH2 0x60F JUMP JUMPDEST PUSH1 0x40 MLOAD PUSH2 0x2F0 SWAP2 SWAP1 PUSH2 0x1635 JUMP JUMPDEST PUSH1 0x40 MLOAD DUP1 SWAP2 SUB SWAP1 RETURN JUMPDEST PUSH2 0x301 PUSH2 0x639 JUMP JUMPDEST PUSH1 0x40 MLOAD PUSH2 0x30E SWAP2 SWAP1 PUSH2 0x13E7 JUMP JUMPDEST PUSH1 0x40 MLOAD DUP1 SWAP2 SUB SWAP1 RETURN JUMPDEST PUSH2 0x331 PUSH1 0x4 DUP1 CALLDATASIZE SUB DUP2 ADD SWAP1 PUSH2 0x32C SWAP2 SWAP1 PUSH2 0x14A2 JUMP JUMPDEST PUSH2 0x6CB JUMP JUMPDEST PUSH1 0x40 MLOAD PUSH2 0x33E SWAP2 SWAP1 PUSH2 0x14FD JUMP JUMPDEST PUSH1 0x40 MLOAD DUP1 SWAP2 SUB SWAP1 RETURN JUMPDEST PUSH2 0x361 PUSH1 0x4 DUP1 CALLDATASIZE SUB DUP2 ADD SWAP1 PUSH2 0x35C SWAP2 SWAP1 PUSH2 0x14A2 JUMP JUMPDEST PUSH2 0x742 JUMP JUMPDEST PUSH1 0x40 MLOAD PUSH2 0x36E SWAP2 SWAP1 PUSH2 0x14FD JUMP JUMPDEST PUSH1 0x40 MLOAD DUP1 SWAP2 SUB SWAP1 RETURN JUMPDEST PUSH2 0x391 PUSH1 0x4 DUP1 CALLDATASIZE SUB DUP2 ADD SWAP1 PUSH2 0x38C SWAP2 SWAP1 PUSH2 0x1650 JUMP JUMPDEST PUSH2 0x75E JUMP JUMPDEST PUSH1 0x40 MLOAD PUSH2 0x39E SWAP2 SWAP1 PUSH2 0x1527 JUMP JUMPDEST PUSH1 0x40 MLOAD DUP1 SWAP2 SUB SWAP1 RETURN JUMPDEST PUSH2 0x3C1 PUSH1 0x4 DUP1 CALLDATASIZE SUB DUP2 ADD SWAP1 PUSH2 0x3BC SWAP2 SWAP1 PUSH2 0x15F9 JUMP JUMPDEST PUSH2 0x7E5 JUMP JUMPDEST STOP JUMPDEST PUSH1 0x60 PUSH1 0x3 DUP1 SLOAD PUSH2 0x3D2 SWAP1 PUSH2 0x16BF JUMP JUMPDEST DUP1 PUSH1 0x1F ADD PUSH1 0x20 DUP1 SWAP2 DIV MUL PUSH1 0x20 ADD PUSH1 0x40 MLOAD SWAP1 DUP2 ADD PUSH1 0x40 MSTORE DUP1 SWAP3 SWAP2 SWAP1 DUP2 DUP2 MSTORE PUSH1 0x20 ADD DUP3 DUP1 SLOAD PUSH2 0x3FE SWAP1 PUSH2 0x16BF JUMP JUMPDEST DUP1 ISZERO PUSH2 0x44B JUMPI DUP1 PUSH1 0x1F LT PUSH2 0x420 JUMPI PUSH2 0x100 DUP1 DUP4 SLOAD DIV MUL DUP4 MSTORE SWAP2 PUSH1 0x20 ADD SWAP2 PUSH2 0x44B JUMP JUMPDEST DUP3 ADD SWAP2 SWAP1 PUSH1 0x0 MSTORE PUSH1 0x20 PUSH1 0x0 KECCAK256 SWAP1 JUMPDEST DUP2 SLOAD DUP2 MSTORE SWAP1 PUSH1 0x1 ADD SWAP1 PUSH1 0x20 ADD DUP1 DUP4 GT PUSH2 0x42E JUMPI DUP3 SWAP1 SUB PUSH1 0x1F AND DUP3 ADD SWAP2 JUMPDEST POP POP POP POP POP SWAP1 POP SWAP1 JUMP JUMPDEST PUSH1 0x0 DUP1 PUSH2 0x460 PUSH2 0x868 JUMP JUMPDEST SWAP1 POP PUSH2 0x46D DUP2 DUP6 DUP6 PUSH2 0x870 JUMP JUMPDEST PUSH1 0x1 SWAP2 POP POP SWAP3 SWAP2 POP POP JUMP JUMPDEST PUSH1 0x0 PUSH1 0x2 SLOAD SWAP1 POP SWAP1 JUMP JUMPDEST PUSH1 0x0 PUSH2 0x48C PUSH2 0xA39 JUMP JUMPDEST PUSH2 0x497 DUP5 DUP5 DUP5 PUSH2 0xA83 JUMP JUMPDEST SWAP1 POP SWAP4 SWAP3 POP POP POP JUMP JUMPDEST PUSH1 0x0 PUSH1 0x12 SWAP1 POP SWAP1 JUMP JUMPDEST PUSH1 0x0 DUP1 PUSH2 0x4B4 PUSH2 0x868 JUMP JUMPDEST SWAP1 POP PUSH2 0x4D5 DUP2 DUP6 DUP6 PUSH2 0x4C6 DUP6 DUP10 PUSH2 0x75E JUMP JUMPDEST PUSH2 0x4D0 SWAP2 SWAP1 PUSH2 0x171F JUMP JUMPDEST PUSH2 0x870 JUMP JUMPDEST PUSH1 0x1 SWAP2 POP POP SWAP3 SWAP2 POP POP JUMP JUMPDEST PUSH2 0x4E8 PUSH2 0xAB2 JUMP JUMPDEST PUSH2 0x4F0 PUSH2 0xB30 JUMP JUMPDEST JUMP JUMPDEST PUSH2 0x4FA PUSH2 0xAB2 JUMP JUMPDEST PUSH2 0x504 DUP3 DUP3 PUSH2 0xB93 JUMP JUMPDEST DUP2 PUSH20 0xFFFFFFFFFFFFFFFFFFFFFFFFFFFFFFFFFFFFFFFF AND PUSH32 0x3F2C9D57C068687834F0DE942A9BABB9E5ACAB57D516D3480A3C16EE165A4273 DUP3 PUSH1 0x40 MLOAD PUSH2 0x54A SWAP2 SWAP1 PUSH2 0x1527 JUMP JUMPDEST PUSH1 0x40 MLOAD DUP1 SWAP2 SUB SWAP1 LOG2 POP POP JUMP JUMPDEST PUSH2 0x567 PUSH2 0x561 PUSH2 0x868 JUMP JUMPDEST DUP3 PUSH2 0xCE9 JUMP JUMPDEST POP JUMP JUMPDEST PUSH1 0x0 PUSH1 0x5 PUSH1 0x14 SWAP1 SLOAD SWAP1 PUSH2 0x100 EXP SWAP1 DIV PUSH1 0xFF AND SWAP1 POP SWAP1 JUMP JUMPDEST PUSH1 0x0 DUP1 PUSH1 0x0 DUP4 PUSH20 0xFFFFFFFFFFFFFFFFFFFFFFFFFFFFFFFFFFFFFFFF AND PUSH20 0xFFFFFFFFFFFFFFFFFFFFFFFFFFFFFFFFFFFFFFFF AND DUP2 MSTORE PUSH1 0x20 ADD SWAP1 DUP2 MSTORE PUSH1 0x20 ADD PUSH1 0x0 KECCAK256 SLOAD SWAP1 POP SWAP2 SWAP1 POP JUMP JUMPDEST PUSH2 0x5D1 PUSH2 0xAB2 JUMP JUMPDEST PUSH2 0x5DB PUSH1 0x0 PUSH2 0xEB6 JUMP JUMPDEST JUMP JUMPDEST PUSH2 0x5EF DUP3 PUSH2 0x5E9 PUSH2 0x868 JUMP JUMPDEST DUP4 PUSH2 0xF7C JUMP JUMPDEST PUSH2 0x5F9 DUP3 DUP3 PUSH2 0xCE9 JUMP JUMPDEST POP POP JUMP JUMPDEST PUSH2 0x605 PUSH2 0xAB2 JUMP JUMPDEST PUSH2 0x60D PUSH2 0x1008 JUMP JUMPDEST JUMP JUMPDEST PUSH1 0x0 PUSH1 0x5 PUSH1 0x0 SWAP1 SLOAD SWAP1 PUSH2 0x100 EXP SWAP1 DIV PUSH20 0xFFFFFFFFFFFFFFFFFFFFFFFFFFFFFFFFFFFFFFFF AND SWAP1 POP SWAP1 JUMP JUMPDEST PUSH1 0x60 PUSH1 0x4 DUP1 SLOAD PUSH2 0x648 SWAP1 PUSH2 0x16BF JUMP JUMPDEST DUP1 PUSH1 0x1F ADD PUSH1 0x20 DUP1 SWAP2 DIV MUL PUSH1 0x20 ADD PUSH1 0x40 MLOAD SWAP1 DUP2 ADD PUSH1 0x40 MSTORE DUP1 SWAP3 SWAP2 SWAP1 DUP2 DUP2 MSTORE PUSH1 0x20 ADD DUP3 DUP1 SLOAD PUSH2 0x674 SWAP1 PUSH2 0x16BF JUMP JUMPDEST DUP1 ISZERO PUSH2 0x6C1 JUMPI DUP1 PUSH1 0x1F LT PUSH2 0x696 JUMPI PUSH2 0x100 DUP1 DUP4 SLOAD DIV MUL DUP4 MSTORE SWAP2 PUSH1 0x20 ADD SWAP2 PUSH2 0x6C1 JUMP JUMPDEST DUP3 ADD SWAP2 SWAP1 PUSH1 0x0 MSTORE PUSH1 0x20 PUSH1 0x0 KECCAK256 SWAP1 JUMPDEST DUP2 SLOAD DUP2 MSTORE SWAP1 PUSH1 0x1 ADD SWAP1 PUSH1 0x20 ADD DUP1 DUP4 GT PUSH2 0x6A4 JUMPI DUP3 SWAP1 SUB PUSH1 0x1F AND DUP3 ADD SWAP2 JUMPDEST POP POP POP POP POP SWAP1 POP SWAP1 JUMP JUMPDEST PUSH1 0x0 DUP1 PUSH2 0x6D6 PUSH2 0x868 JUMP JUMPDEST SWAP1 POP PUSH1 0x0 PUSH2 0x6E4 DUP3 DUP7 PUSH2 0x75E JUMP JUMPDEST SWAP1 POP DUP4 DUP2 LT ISZERO PUSH2 0x729 JUMPI PUSH1 0x40 MLOAD PUSH32 0x8C379A000000000000000000000000000000000000000000000000000000000 DUP2 MSTORE PUSH1 0x4 ADD PUSH2 0x720 SWAP1 PUSH2 0x17C5 JUMP JUMPDEST PUSH1 0x40 MLOAD DUP1 SWAP2 SUB SWAP1 REVERT JUMPDEST PUSH2 0x736 DUP3 DUP7 DUP7 DUP5 SUB PUSH2 0x870 JUMP JUMPDEST PUSH1 0x1 SWAP3 POP POP POP SWAP3 SWAP2 POP POP JUMP JUMPDEST PUSH1 0x0 PUSH2 0x74C PUSH2 0xA39 JUMP JUMPDEST PUSH2 0x756 DUP4 DUP4 PUSH2 0x106B JUMP JUMPDEST SWAP1 POP SWAP3 SWAP2 POP POP JUMP JUMPDEST PUSH1 0x0 PUSH1 0x1 PUSH1 0x0 DUP5 PUSH20 0xFFFFFFFFFFFFFFFFFFFFFFFFFFFFFFFFFFFFFFFF AND PUSH20 0xFFFFFFFFFFFFFFFFFFFFFFFFFFFFFFFFFFFFFFFF AND DUP2 MSTORE PUSH1 0x20 ADD SWAP1 DUP2 MSTORE PUSH1 0x20 ADD PUSH1 0x0 KECCAK256 PUSH1 0x0 DUP4 PUSH20 0xFFFFFFFFFFFFFFFFFFFFFFFFFFFFFFFFFFFFFFFF AND PUSH20 0xFFFFFFFFFFFFFFFFFFFFFFFFFFFFFFFFFFFFFFFF AND DUP2 MSTORE PUSH1 0x20 ADD SWAP1 DUP2 MSTORE PUSH1 0x20 ADD PUSH1 0x0 KECCAK256 SLOAD SWAP1 POP SWAP3 SWAP2 POP POP JUMP JUMPDEST PUSH2 0x7ED PUSH2 0xAB2 JUMP JUMPDEST PUSH1 0x0 PUSH20 0xFFFFFFFFFFFFFFFFFFFFFFFFFFFFFFFFFFFFFFFF AND DUP2 PUSH20 0xFFFFFFFFFFFFFFFFFFFFFFFFFFFFFFFFFFFFFFFF AND SUB PUSH2 0x85C JUMPI PUSH1 0x40 MLOAD PUSH32 0x8C379A000000000000000000000000000000000000000000000000000000000 DUP2 MSTORE PUSH1 0x4 ADD PUSH2 0x853 SWAP1 PUSH2 0x1857 JUMP JUMPDEST PUSH1 0x40 MLOAD DUP1 SWAP2 SUB SWAP1 REVERT JUMPDEST PUSH2 0x865 DUP2 PUSH2 0xEB6 JUMP JUMPDEST POP JUMP JUMPDEST PUSH1 0x0 CALLER SWAP1 POP SWAP1 JUMP JUMPDEST PUSH1 0x0 PUSH20 0xFFFFFFFFFFFFFFFFFFFFFFFFFFFFFFFFFFFFFFFF AND DUP4 PUSH20 0xFFFFFFFFFFFFFFFFFFFFFFFFFFFFFFFFFFFFFFFF AND SUB PUSH2 0x8DF JUMPI PUSH1 0x40 MLOAD PUSH32 0x8C379A000000000000000000000000000000000000000000000000000000000 DUP2 MSTORE PUSH1 0x4 ADD PUSH2 0x8D6 SWAP1 PUSH2 0x18E9 JUMP JUMPDEST PUSH1 0x40 MLOAD DUP1 SWAP2 SUB SWAP1 REVERT JUMPDEST PUSH1 0x0 PUSH20 0xFFFFFFFFFFFFFFFFFFFFFFFFFFFFFFFFFFFFFFFF AND DUP3 PUSH20 0xFFFFFFFFFFFFFFFFFFFFFFFFFFFFFFFFFFFFFFFF AND SUB PUSH2 0x94E JUMPI PUSH1 0x40 MLOAD PUSH32 0x8C379A000000000000000000000000000000000000000000000000000000000 DUP2 MSTORE PUSH1 0x4 ADD PUSH2 0x945 SWAP1 PUSH2 0x197B JUMP JUMPDEST PUSH1 0x40 MLOAD DUP1 SWAP2 SUB SWAP1 REVERT JUMPDEST DUP1 PUSH1 0x1 PUSH1 0x0 DUP6 PUSH20 0xFFFFFFFFFFFFFFFFFFFFFFFFFFFFFFFFFFFFFFFF AND PUSH20 0xFFFFFFFFFFFFFFFFFFFFFFFFFFFFFFFFFFFFFFFF AND DUP2 MSTORE PUSH1 0x20 ADD SWAP1 DUP2 MSTORE PUSH1 0x20 ADD PUSH1 0x0 KECCAK256 PUSH1 0x0 DUP5 PUSH20 0xFFFFFFFFFFFFFFFFFFFFFFFFFFFFFFFFFFFFFFFF AND PUSH20 0xFFFFFFFFFFFFFFFFFFFFFFFFFFFFFFFFFFFFFFFF AND DUP2 MSTORE PUSH1 0x20 ADD SWAP1 DUP2 MSTORE PUSH1 0x20 ADD PUSH1 0x0 KECCAK256 DUP2 SWAP1 SSTORE POP DUP2 PUSH20 0xFFFFFFFFFFFFFFFFFFFFFFFFFFFFFFFFFFFFFFFF AND DUP4 PUSH20 0xFFFFFFFFFFFFFFFFFFFFFFFFFFFFFFFFFFFFFFFF AND PUSH32 0x8C5BE1E5EBEC7D5BD14F71427D1E84F3DD0314C0F7B2291E5B200AC8C7C3B925 DUP4 PUSH1 0x40 MLOAD PUSH2 0xA2C SWAP2 SWAP1 PUSH2 0x1527 JUMP JUMPDEST PUSH1 0x40 MLOAD DUP1 SWAP2 SUB SWAP1 LOG3 POP POP POP JUMP JUMPDEST PUSH2 0xA41 PUSH2 0x56A JUMP JUMPDEST ISZERO PUSH2 0xA81 JUMPI PUSH1 0x40 MLOAD PUSH32 0x8C379A000000000000000000000000000000000000000000000000000000000 DUP2 MSTORE PUSH1 0x4 ADD PUSH2 0xA78 SWAP1 PUSH2 0x19E7 JUMP JUMPDEST PUSH1 0x40 MLOAD DUP1 SWAP2 SUB SWAP1 REVERT JUMPDEST JUMP JUMPDEST PUSH1 0x0 DUP1 PUSH2 0xA8E PUSH2 0x868 JUMP JUMPDEST SWAP1 POP PUSH2 0xA9B DUP6 DUP3 DUP6 PUSH2 0xF7C JUMP JUMPDEST PUSH2 0xAA6 DUP6 DUP6 DUP6 PUSH2 0x108E JUMP JUMPDEST PUSH1 0x1 SWAP2 POP POP SWAP4 SWAP3 POP POP POP JUMP JUMPDEST PUSH2 0xABA PUSH2 0x868 JUMP JUMPDEST PUSH20 0xFFFFFFFFFFFFFFFFFFFFFFFFFFFFFFFFFFFFFFFF AND PUSH2 0xAD8 PUSH2 0x60F JUMP JUMPDEST PUSH20 0xFFFFFFFFFFFFFFFFFFFFFFFFFFFFFFFFFFFFFFFF AND EQ PUSH2 0xB2E JUMPI PUSH1 0x40 MLOAD PUSH32 0x8C379A000000000000000000000000000000000000000000000000000000000 DUP2 MSTORE PUSH1 0x4 ADD PUSH2 0xB25 SWAP1 PUSH2 0x1A53 JUMP JUMPDEST PUSH1 0x40 MLOAD DUP1 SWAP2 SUB SWAP1 REVERT JUMPDEST JUMP JUMPDEST PUSH2 0xB38 PUSH2 0x1304 JUMP JUMPDEST PUSH1 0x0 PUSH1 0x5 PUSH1 0x14 PUSH2 0x100 EXP DUP2 SLOAD DUP2 PUSH1 0xFF MUL NOT AND SWAP1 DUP4 ISZERO ISZERO MUL OR SWAP1 SSTORE POP PUSH32 0x5DB9EE0A495BF2E6FF9C91A7834C1BA4FDD244A5E8AA4E537BD38AEAE4B073AA PUSH2 0xB7C PUSH2 0x868 JUMP JUMPDEST PUSH1 0x40 MLOAD PUSH2 0xB89 SWAP2 SWAP1 PUSH2 0x1635 JUMP JUMPDEST PUSH1 0x40 MLOAD DUP1 SWAP2 SUB SWAP1 LOG1 JUMP JUMPDEST PUSH1 0x0 PUSH20 0xFFFFFFFFFFFFFFFFFFFFFFFFFFFFFFFFFFFFFFFF AND DUP3 PUSH20 0xFFFFFFFFFFFFFFFFFFFFFFFFFFFFFFFFFFFFFFFF AND SUB PUSH2 0xC02 JUMPI PUSH1 0x40 MLOAD PUSH32 0x8C379A000000000000000000000000000000000000000000000000000000000 DUP2 MSTORE PUSH1 0x4 ADD PUSH2 0xBF9 SWAP1 PUSH2 0x1ABF JUMP JUMPDEST PUSH1 0x40 MLOAD DUP1 SWAP2 SUB SWAP1 REVERT JUMPDEST PUSH2 0xC0E PUSH1 0x0 DUP4 DUP4 PUSH2 0x134D JUMP JUMPDEST DUP1 PUSH1 0x2 PUSH1 0x0 DUP3 DUP3 SLOAD PUSH2 0xC20 SWAP2 SWAP1 PUSH2 0x171F JUMP JUMPDEST SWAP3 POP POP DUP2 SWAP1 SSTORE POP DUP1 PUSH1 0x0 DUP1 DUP5 PUSH20 0xFFFFFFFFFFFFFFFFFFFFFFFFFFFFFFFFFFFFFFFF AND PUSH20 0xFFFFFFFFFFFFFFFFFFFFFFFFFFFFFFFFFFFFFFFF AND DUP2 MSTORE PUSH1 0x20 ADD SWAP1 DUP2 MSTORE PUSH1 0x20 ADD PUSH1 0x0 KECCAK256 PUSH1 0x0 DUP3 DUP3 SLOAD ADD SWAP3 POP POP DUP2 SWAP1 SSTORE POP DUP2 PUSH20 0xFFFFFFFFFFFFFFFFFFFFFFFFFFFFFFFFFFFFFFFF AND PUSH1 0x0 PUSH20 0xFFFFFFFFFFFFFFFFFFFFFFFFFFFFFFFFFFFFFFFF AND PUSH32 0xDDF252AD1BE2C89B69C2B068FC378DAA952BA7F163C4A11628F55A4DF523B3EF DUP4 PUSH1 0x40 MLOAD PUSH2 0xCD1 SWAP2 SWAP1 PUSH2 0x1527 JUMP JUMPDEST PUSH1 0x40 MLOAD DUP1 SWAP2 SUB SWAP1 LOG3 PUSH2 0xCE5 PUSH1 0x0 DUP4 DUP4 PUSH2 0x1352 JUMP JUMPDEST POP POP JUMP JUMPDEST PUSH1 0x0 PUSH20 0xFFFFFFFFFFFFFFFFFFFFFFFFFFFFFFFFFFFFFFFF AND DUP3 PUSH20 0xFFFFFFFFFFFFFFFFFFFFFFFFFFFFFFFFFFFFFFFF AND SUB PUSH2 0xD58 JUMPI PUSH1 0x40 MLOAD PUSH32 0x8C379A000000000000000000000000000000000000000000000000000000000 DUP2 MSTORE PUSH1 0x4 ADD PUSH2 0xD4F SWAP1 PUSH2 0x1B51 JUMP JUMPDEST PUSH1 0x40 MLOAD DUP1 SWAP2 SUB SWAP1 REVERT JUMPDEST PUSH2 0xD64 DUP3 PUSH1 0x0 DUP4 PUSH2 0x134D JUMP JUMPDEST PUSH1 0x0 DUP1 PUSH1 0x0 DUP5 PUSH20 0xFFFFFFFFFFFFFFFFFFFFFFFFFFFFFFFFFFFFFFFF AND PUSH20 0xFFFFFFFFFFFFFFFFFFFFFFFFFFFFFFFFFFFFFFFF AND DUP2 MSTORE PUSH1 0x20 ADD SWAP1 DUP2 MSTORE PUSH1 0x20 ADD PUSH1 0x0 KECCAK256 SLOAD SWAP1 POP DUP2 DUP2 LT ISZERO PUSH2 0xDEA JUMPI PUSH1 0x40 MLOAD PUSH32 0x8C379A000000000000000000000000000000000000000000000000000000000 DUP2 MSTORE PUSH1 0x4 ADD PUSH2 0xDE1 SWAP1 PUSH2 0x1BE3 JUMP JUMPDEST PUSH1 0x40 MLOAD DUP1 SWAP2 SUB SWAP1 REVERT JUMPDEST DUP2 DUP2 SUB PUSH1 0x0 DUP1 DUP6 PUSH20 0xFFFFFFFFFFFFFFFFFFFFFFFFFFFFFFFFFFFFFFFF AND PUSH20 0xFFFFFFFFFFFFFFFFFFFFFFFFFFFFFFFFFFFFFFFF AND DUP2 MSTORE PUSH1 0x20 ADD SWAP1 DUP2 MSTORE PUSH1 0x20 ADD PUSH1 0x0 KECCAK256 DUP2 SWAP1 SSTORE POP DUP2 PUSH1 0x2 PUSH1 0x0 DUP3 DUP3 SLOAD SUB SWAP3 POP POP DUP2 SWAP1 SSTORE POP PUSH1 0x0 PUSH20 0xFFFFFFFFFFFFFFFFFFFFFFFFFFFFFFFFFFFFFFFF AND DUP4 PUSH20 0xFFFFFFFFFFFFFFFFFFFFFFFFFFFFFFFFFFFFFFFF AND PUSH32 0xDDF252AD1BE2C89B69C2B068FC378DAA952BA7F163C4A11628F55A4DF523B3EF DUP5 PUSH1 0x40 MLOAD PUSH2 0xE9D SWAP2 SWAP1 PUSH2 0x1527 JUMP JUMPDEST PUSH1 0x40 MLOAD DUP1 SWAP2 SUB SWAP1 LOG3 PUSH2 0xEB1 DUP4 PUSH1 0x0 DUP5 PUSH2 0x1352 JUMP JUMPDEST POP POP POP JUMP JUMPDEST PUSH1 0x0 PUSH1 0x5 PUSH1 0x0 SWAP1 SLOAD SWAP1 PUSH2 0x100 EXP SWAP1 DIV PUSH20 0xFFFFFFFFFFFFFFFFFFFFFFFFFFFFFFFFFFFFFFFF AND SWAP1 POP DUP2 PUSH1 0x5 PUSH1 0x0 PUSH2 0x100 EXP DUP2 SLOAD DUP2 PUSH20 0xFFFFFFFFFFFFFFFFFFFFFFFFFFFFFFFFFFFFFFFF MUL NOT AND SWAP1 DUP4 PUSH20 0xFFFFFFFFFFFFFFFFFFFFFFFFFFFFFFFFFFFFFFFF AND MUL OR SWAP1 SSTORE POP DUP2 PUSH20 0xFFFFFFFFFFFFFFFFFFFFFFFFFFFFFFFFFFFFFFFF AND DUP2 PUSH20 0xFFFFFFFFFFFFFFFFFFFFFFFFFFFFFFFFFFFFFFFF AND PUSH32 0x8BE0079C531659141344CD1FD0A4F28419497F9722A3DAAFE3B4186F6B6457E0 PUSH1 0x40 MLOAD PUSH1 0x40 MLOAD DUP1 SWAP2 SUB SWAP1 LOG3 POP POP JUMP JUMPDEST PUSH1 0x0 PUSH2 0xF88 DUP5 DUP5 PUSH2 0x75E JUMP JUMPDEST SWAP1 POP PUSH32 0xFFFFFFFFFFFFFFFFFFFFFFFFFFFFFFFFFFFFFFFFFFFFFFFFFFFFFFFFFFFFFFFF DUP2 EQ PUSH2 0x1002 JUMPI DUP2 DUP2 LT ISZERO PUSH2 0xFF4 JUMPI PUSH1 0x40 MLOAD PUSH32 0x8C379A000000000000000000000000000000000000000000000000000000000 DUP2 MSTORE PUSH1 0x4 ADD PUSH2 0xFEB SWAP1 PUSH2 0x1C4F JUMP JUMPDEST PUSH1 0x40 MLOAD DUP1 SWAP2 SUB SWAP1 REVERT JUMPDEST PUSH2 0x1001 DUP5 DUP5 DUP5 DUP5 SUB PUSH2 0x870 JUMP JUMPDEST JUMPDEST POP POP POP POP JUMP JUMPDEST PUSH2 0x1010 PUSH2 0xA39 JUMP JUMPDEST PUSH1 0x1 PUSH1 0x5 PUSH1 0x14 PUSH2 0x100 EXP DUP2 SLOAD DUP2 PUSH1 0xFF MUL NOT AND SWAP1 DUP4 ISZERO ISZERO MUL OR SWAP1 SSTORE POP PUSH32 0x62E78CEA01BEE320CD4E420270B5EA74000D11B0C9F74754EBDBFC544B05A258 PUSH2 0x1054 PUSH2 0x868 JUMP JUMPDEST PUSH1 0x40 MLOAD PUSH2 0x1061 SWAP2 SWAP1 PUSH2 0x1635 JUMP JUMPDEST PUSH1 0x40 MLOAD DUP1 SWAP2 SUB SWAP1 LOG1 JUMP JUMPDEST PUSH1 0x0 DUP1 PUSH2 0x1076 PUSH2 0x868 JUMP JUMPDEST SWAP1 POP PUSH2 0x1083 DUP2 DUP6 DUP6 PUSH2 0x108E JUMP JUMPDEST PUSH1 0x1 SWAP2 POP POP SWAP3 SWAP2 POP POP JUMP JUMPDEST PUSH1 0x0 PUSH20 0xFFFFFFFFFFFFFFFFFFFFFFFFFFFFFFFFFFFFFFFF AND DUP4 PUSH20 0xFFFFFFFFFFFFFFFFFFFFFFFFFFFFFFFFFFFFFFFF AND SUB PUSH2 0x10FD JUMPI PUSH1 0x40 MLOAD PUSH32 0x8C379A000000000000000000000000000000000000000000000000000000000 DUP2 MSTORE PUSH1 0x4 ADD PUSH2 0x10F4 SWAP1 PUSH2 0x1CE1 JUMP JUMPDEST PUSH1 0x40 MLOAD DUP1 SWAP2 SUB SWAP1 REVERT JUMPDEST PUSH1 0x0 PUSH20 0xFFFFFFFFFFFFFFFFFFFFFFFFFFFFFFFFFFFFFFFF AND DUP3 PUSH20 0xFFFFFFFFFFFFFFFFFFFFFFFFFFFFFFFFFFFFFFFF AND SUB PUSH2 0x116C JUMPI PUSH1 0x40 MLOAD PUSH32 0x8C379A000000000000000000000000000000000000000000000000000000000 DUP2 MSTORE PUSH1 0x4 ADD PUSH2 0x1163 SWAP1 PUSH2 0x1D73 JUMP JUMPDEST PUSH1 0x40 MLOAD DUP1 SWAP2 SUB SWAP1 REVERT JUMPDEST PUSH2 0x1177 DUP4 DUP4 DUP4 PUSH2 0x134D JUMP JUMPDEST PUSH1 0x0 DUP1 PUSH1 0x0 DUP6 PUSH20 0xFFFFFFFFFFFFFFFFFFFFFFFFFFFFFFFFFFFFFFFF AND PUSH20 0xFFFFFFFFFFFFFFFFFFFFFFFFFFFFFFFFFFFFFFFF AND DUP2 MSTORE PUSH1 0x20 ADD SWAP1 DUP2 MSTORE PUSH1 0x20 ADD PUSH1 0x0 KECCAK256 SLOAD SWAP1 POP DUP2 DUP2 LT ISZERO PUSH2 0x11FD JUMPI PUSH1 0x40 MLOAD PUSH32 0x8C379A000000000000000000000000000000000000000000000000000000000 DUP2 MSTORE PUSH1 0x4 ADD PUSH2 0x11F4 SWAP1 PUSH2 0x1E05 JUMP JUMPDEST PUSH1 0x40 MLOAD DUP1 SWAP2 SUB SWAP1 REVERT JUMPDEST DUP2 DUP2 SUB PUSH1 0x0 DUP1 DUP7 PUSH20 0xFFFFFFFFFFFFFFFFFFFFFFFFFFFFFFFFFFFFFFFF AND PUSH20 0xFFFFFFFFFFFFFFFFFFFFFFFFFFFFFFFFFFFFFFFF AND DUP2 MSTORE PUSH1 0x20 ADD SWAP1 DUP2 MSTORE PUSH1 0x20 ADD PUSH1 0x0 KECCAK256 DUP2 SWAP1 SSTORE POP DUP2 PUSH1 0x0 DUP1 DUP6 PUSH20 0xFFFFFFFFFFFFFFFFFFFFFFFFFFFFFFFFFFFFFFFF AND PUSH20 0xFFFFFFFFFFFFFFFFFFFFFFFFFFFFFFFFFFFFFFFF AND DUP2 MSTORE PUSH1 0x20 ADD SWAP1 DUP2 MSTORE PUSH1 0x20 ADD PUSH1 0x0 KECCAK256 PUSH1 0x0 DUP3 DUP3 SLOAD ADD SWAP3 POP POP DUP2 SWAP1 SSTORE POP DUP3 PUSH20 0xFFFFFFFFFFFFFFFFFFFFFFFFFFFFFFFFFFFFFFFF AND DUP5 PUSH20 0xFFFFFFFFFFFFFFFFFFFFFFFFFFFFFFFFFFFFFFFF AND PUSH32 0xDDF252AD1BE2C89B69C2B068FC378DAA952BA7F163C4A11628F55A4DF523B3EF DUP5 PUSH1 0x40 MLOAD PUSH2 0x12EB SWAP2 SWAP1 PUSH2 0x1527 JUMP JUMPDEST PUSH1 0x40 MLOAD DUP1 SWAP2 SUB SWAP1 LOG3 PUSH2 0x12FE DUP5 DUP5 DUP5 PUSH2 0x1352 JUMP JUMPDEST POP POP POP POP JUMP JUMPDEST PUSH2 0x130C PUSH2 0x56A JUMP JUMPDEST PUSH2 0x134B JUMPI PUSH1 0x40 MLOAD PUSH32 0x8C379A000000000000000000000000000000000000000000000000000000000 DUP2 MSTORE PUSH1 0x4 ADD PUSH2 0x1342 SWAP1 PUSH2 0x1E71 JUMP JUMPDEST PUSH1 0x40 MLOAD DUP1 SWAP2 SUB SWAP1 REVERT JUMPDEST JUMP JUMPDEST POP POP POP JUMP JUMPDEST POP POP POP JUMP JUMPDEST PUSH1 0x0 DUP2 MLOAD SWAP1 POP SWAP2 SWAP1 POP JUMP JUMPDEST PUSH1 0x0 DUP3 DUP3 MSTORE PUSH1 0x20 DUP3 ADD SWAP1 POP SWAP3 SWAP2 POP POP JUMP JUMPDEST PUSH1 0x0 JUMPDEST DUP4 DUP2 LT ISZERO PUSH2 0x1391 JUMPI DUP1 DUP3 ADD MLOAD DUP2 DUP5 ADD MSTORE PUSH1 0x20 DUP2 ADD SWAP1 POP PUSH2 0x1376 JUMP JUMPDEST PUSH1 0x0 DUP5 DUP5 ADD MSTORE POP POP POP POP JUMP JUMPDEST PUSH1 0x0 PUSH1 0x1F NOT PUSH1 0x1F DUP4 ADD AND SWAP1 POP SWAP2 SWAP1 POP JUMP JUMPDEST PUSH1 0x0 PUSH2 0x13B9 DUP3 PUSH2 0x1357 JUMP JUMPDEST PUSH2 0x13C3 DUP2 DUP6 PUSH2 0x1362 JUMP JUMPDEST SWAP4 POP PUSH2 0x13D3 DUP2 DUP6 PUSH1 0x20 DUP7 ADD PUSH2 0x1373 JUMP JUMPDEST PUSH2 0x13DC DUP2 PUSH2 0x139D JUMP JUMPDEST DUP5 ADD SWAP2 POP POP SWAP3 SWAP2 POP POP JUMP JUMPDEST PUSH1 0x0 PUSH1 0x20 DUP3 ADD SWAP1 POP DUP2 DUP2 SUB PUSH1 0x0 DUP4 ADD MSTORE PUSH2 0x1401 DUP2 DUP5 PUSH2 0x13AE JUMP JUMPDEST SWAP1 POP SWAP3 SWAP2 POP POP JUMP JUMPDEST PUSH1 0x0 DUP1 REVERT JUMPDEST PUSH1 0x0 PUSH20 0xFFFFFFFFFFFFFFFFFFFFFFFFFFFFFFFFFFFFFFFF DUP3 AND SWAP1 POP SWAP2 SWAP1 POP JUMP JUMPDEST PUSH1 0x0 PUSH2 0x1439 DUP3 PUSH2 0x140E JUMP JUMPDEST SWAP1 POP SWAP2 SWAP1 POP JUMP JUMPDEST PUSH2 0x1449 DUP2 PUSH2 0x142E JUMP JUMPDEST DUP2 EQ PUSH2 0x1454 JUMPI PUSH1 0x0 DUP1 REVERT JUMPDEST POP JUMP JUMPDEST PUSH1 0x0 DUP2 CALLDATALOAD SWAP1 POP PUSH2 0x1466 DUP2 PUSH2 0x1440 JUMP JUMPDEST SWAP3 SWAP2 POP POP JUMP JUMPDEST PUSH1 0x0 DUP2 SWAP1 POP SWAP2 SWAP1 POP JUMP JUMPDEST PUSH2 0x147F DUP2 PUSH2 0x146C JUMP JUMPDEST DUP2 EQ PUSH2 0x148A JUMPI PUSH1 0x0 DUP1 REVERT JUMPDEST POP JUMP JUMPDEST PUSH1 0x0 DUP2 CALLDATALOAD SWAP1 POP PUSH2 0x149C DUP2 PUSH2 0x1476 JUMP JUMPDEST SWAP3 SWAP2 POP POP JUMP JUMPDEST PUSH1 0x0 DUP1 PUSH1 0x40 DUP4 DUP6 SUB SLT ISZERO PUSH2 0x14B9 JUMPI PUSH2 0x14B8 PUSH2 0x1409 JUMP JUMPDEST JUMPDEST PUSH1 0x0 PUSH2 0x14C7 DUP6 DUP3 DUP7 ADD PUSH2 0x1457 JUMP JUMPDEST SWAP3 POP POP PUSH1 0x20 PUSH2 0x14D8 DUP6 DUP3 DUP7 ADD PUSH2 0x148D JUMP JUMPDEST SWAP2 POP POP SWAP3 POP SWAP3 SWAP1 POP JUMP JUMPDEST PUSH1 0x0 DUP2 ISZERO ISZERO SWAP1 POP SWAP2 SWAP1 POP JUMP JUMPDEST PUSH2 0x14F7 DUP2 PUSH2 0x14E2 JUMP JUMPDEST DUP3 MSTORE POP POP JUMP JUMPDEST PUSH1 0x0 PUSH1 0x20 DUP3 ADD SWAP1 POP PUSH2 0x1512 PUSH1 0x0 DUP4 ADD DUP5 PUSH2 0x14EE JUMP JUMPDEST SWAP3 SWAP2 POP POP JUMP JUMPDEST PUSH2 0x1521 DUP2 PUSH2 0x146C JUMP JUMPDEST DUP3 MSTORE POP POP JUMP JUMPDEST PUSH1 0x0 PUSH1 0x20 DUP3 ADD SWAP1 POP PUSH2 0x153C PUSH1 0x0 DUP4 ADD DUP5 PUSH2 0x1518 JUMP JUMPDEST SWAP3 SWAP2 POP POP JUMP JUMPDEST PUSH1 0x0 DUP1 PUSH1 0x0 PUSH1 0x60 DUP5 DUP7 SUB SLT ISZERO PUSH2 0x155B JUMPI PUSH2 0x155A PUSH2 0x1409 JUMP JUMPDEST JUMPDEST PUSH1 0x0 PUSH2 0x1569 DUP7 DUP3 DUP8 ADD PUSH2 0x1457 JUMP JUMPDEST SWAP4 POP POP PUSH1 0x20 PUSH2 0x157A DUP7 DUP3 DUP8 ADD PUSH2 0x1457 JUMP JUMPDEST SWAP3 POP POP PUSH1 0x40 PUSH2 0x158B DUP7 DUP3 DUP8 ADD PUSH2 0x148D JUMP JUMPDEST SWAP2 POP POP SWAP3 POP SWAP3 POP SWAP3 JUMP JUMPDEST PUSH1 0x0 PUSH1 0xFF DUP3 AND SWAP1 POP SWAP2 SWAP1 POP JUMP JUMPDEST PUSH2 0x15AB DUP2 PUSH2 0x1595 JUMP JUMPDEST DUP3 MSTORE POP POP JUMP JUMPDEST PUSH1 0x0 PUSH1 0x20 DUP3 ADD SWAP1 POP PUSH2 0x15C6 PUSH1 0x0 DUP4 ADD DUP5 PUSH2 0x15A2 JUMP JUMPDEST SWAP3 SWAP2 POP POP JUMP JUMPDEST PUSH1 0x0 PUSH1 0x20 DUP3 DUP5 SUB SLT ISZERO PUSH2 0x15E2 JUMPI PUSH2 0x15E1 PUSH2 0x1409 JUMP JUMPDEST JUMPDEST PUSH1 0x0 PUSH2 0x15F0 DUP5 DUP3 DUP6 ADD PUSH2 0x148D JUMP JUMPDEST SWAP2 POP POP SWAP3 SWAP2 POP POP JUMP JUMPDEST PUSH1 0x0 PUSH1 0x20 DUP3 DUP5 SUB SLT ISZERO PUSH2 0x160F JUMPI PUSH2 0x160E PUSH2 0x1409 JUMP JUMPDEST JUMPDEST PUSH1 0x0 PUSH2 0x161D DUP5 DUP3 DUP6 ADD PUSH2 0x1457 JUMP JUMPDEST SWAP2 POP POP SWAP3 SWAP2 POP POP JUMP JUMPDEST PUSH2 0x162F DUP2 PUSH2 0x142E JUMP JUMPDEST DUP3 MSTORE POP POP JUMP JUMPDEST PUSH1 0x0 PUSH1 0x20 DUP3 ADD SWAP1 POP PUSH2 0x164A PUSH1 0x0 DUP4 ADD DUP5 PUSH2 0x1626 JUMP JUMPDEST SWAP3 SWAP2 POP POP JUMP JUMPDEST PUSH1 0x0 DUP1 PUSH1 0x40 DUP4 DUP6 SUB SLT ISZERO PUSH2 0x1667 JUMPI PUSH2 0x1666 PUSH2 0x1409 JUMP JUMPDEST JUMPDEST PUSH1 0x0 PUSH2 0x1675 DUP6 DUP3 DUP7 ADD PUSH2 0x1457 JUMP JUMPDEST SWAP3 POP POP PUSH1 0x20 PUSH2 0x1686 DUP6 DUP3 DUP7 ADD PUSH2 0x1457 JUMP JUMPDEST SWAP2 POP POP SWAP3 POP SWAP3 SWAP1 POP JUMP JUMPDEST PUSH32 0x4E487B7100000000000000000000000000000000000000000000000000000000 PUSH1 0x0 MSTORE PUSH1 0x22 PUSH1 0x4 MSTORE PUSH1 0x24 PUSH1 0x0 REVERT JUMPDEST PUSH1 0x0 PUSH1 0x2 DUP3 DIV SWAP1 POP PUSH1 0x1 DUP3 AND DUP1 PUSH2 0x16D7 JUMPI PUSH1 0x7F DUP3 AND SWAP2 POP JUMPDEST PUSH1 0x20 DUP3 LT DUP2 SUB PUSH2 0x16EA JUMPI PUSH2 0x16E9 PUSH2 0x1690 JUMP JUMPDEST JUMPDEST POP SWAP2 SWAP1 POP JUMP JUMPDEST PUSH32 0x4E487B7100000000000000000000000000000000000000000000000000000000 PUSH1 0x0 MSTORE PUSH1 0x11 PUSH1 0x4 MSTORE PUSH1 0x24 PUSH1 0x0 REVERT JUMPDEST PUSH1 0x0 PUSH2 0x172A DUP3 PUSH2 0x146C JUMP JUMPDEST SWAP2 POP PUSH2 0x1735 DUP4 PUSH2 0x146C JUMP JUMPDEST SWAP3 POP DUP3 DUP3 ADD SWAP1 POP DUP1 DUP3 GT ISZERO PUSH2 0x174D JUMPI PUSH2 0x174C PUSH2 0x16F0 JUMP JUMPDEST JUMPDEST SWAP3 SWAP2 POP POP JUMP JUMPDEST PUSH32 0x45524332303A2064656372656173656420616C6C6F77616E63652062656C6F77 PUSH1 0x0 DUP3 ADD MSTORE PUSH32 0x207A65726F000000000000000000000000000000000000000000000000000000 PUSH1 0x20 DUP3 ADD MSTORE POP JUMP JUMPDEST PUSH1 0x0 PUSH2 0x17AF PUSH1 0x25 DUP4 PUSH2 0x1362 JUMP JUMPDEST SWAP2 POP PUSH2 0x17BA DUP3 PUSH2 0x1753 JUMP JUMPDEST PUSH1 0x40 DUP3 ADD SWAP1 POP SWAP2 SWAP1 POP JUMP JUMPDEST PUSH1 0x0 PUSH1 0x20 DUP3 ADD SWAP1 POP DUP2 DUP2 SUB PUSH1 0x0 DUP4 ADD MSTORE PUSH2 0x17DE DUP2 PUSH2 0x17A2 JUMP JUMPDEST SWAP1 POP SWAP2 SWAP1 POP JUMP JUMPDEST PUSH32 0x4F776E61626C653A206E6577206F776E657220697320746865207A65726F2061 PUSH1 0x0 DUP3 ADD MSTORE PUSH32 0x6464726573730000000000000000000000000000000000000000000000000000 PUSH1 0x20 DUP3 ADD MSTORE POP JUMP JUMPDEST PUSH1 0x0 PUSH2 0x1841 PUSH1 0x26 DUP4 PUSH2 0x1362 JUMP JUMPDEST SWAP2 POP PUSH2 0x184C DUP3 PUSH2 0x17E5 JUMP JUMPDEST PUSH1 0x40 DUP3 ADD SWAP1 POP SWAP2 SWAP1 POP JUMP JUMPDEST PUSH1 0x0 PUSH1 0x20 DUP3 ADD SWAP1 POP DUP2 DUP2 SUB PUSH1 0x0 DUP4 ADD MSTORE PUSH2 0x1870 DUP2 PUSH2 0x1834 JUMP JUMPDEST SWAP1 POP SWAP2 SWAP1 POP JUMP JUMPDEST PUSH32 0x45524332303A20617070726F76652066726F6D20746865207A65726F20616464 PUSH1 0x0 DUP3 ADD MSTORE PUSH32 0x7265737300000000000000000000000000000000000000000000000000000000 PUSH1 0x20 DUP3 ADD MSTORE POP JUMP JUMPDEST PUSH1 0x0 PUSH2 0x18D3 PUSH1 0x24 DUP4 PUSH2 0x1362 JUMP JUMPDEST SWAP2 POP PUSH2 0x18DE DUP3 PUSH2 0x1877 JUMP JUMPDEST PUSH1 0x40 DUP3 ADD SWAP1 POP SWAP2 SWAP1 POP JUMP JUMPDEST PUSH1 0x0 PUSH1 0x20 DUP3 ADD SWAP1 POP DUP2 DUP2 SUB PUSH1 0x0 DUP4 ADD MSTORE PUSH2 0x1902 DUP2 PUSH2 0x18C6 JUMP JUMPDEST SWAP1 POP SWAP2 SWAP1 POP JUMP JUMPDEST PUSH32 0x45524332303A20617070726F766520746F20746865207A65726F206164647265 PUSH1 0x0 DUP3 ADD MSTORE PUSH32 0x7373000000000000000000000000000000000000000000000000000000000000 PUSH1 0x20 DUP3 ADD MSTORE POP JUMP JUMPDEST PUSH1 0x0 PUSH2 0x1965 PUSH1 0x22 DUP4 PUSH2 0x1362 JUMP JUMPDEST SWAP2 POP PUSH2 0x1970 DUP3 PUSH2 0x1909 JUMP JUMPDEST PUSH1 0x40 DUP3 ADD SWAP1 POP SWAP2 SWAP1 POP JUMP JUMPDEST PUSH1 0x0 PUSH1 0x20 DUP3 ADD SWAP1 POP DUP2 DUP2 SUB PUSH1 0x0 DUP4 ADD MSTORE PUSH2 0x1994 DUP2 PUSH2 0x1958 JUMP JUMPDEST SWAP1 POP SWAP2 SWAP1 POP JUMP JUMPDEST PUSH32 0x5061757361626C653A2070617573656400000000000000000000000000000000 PUSH1 0x0 DUP3 ADD MSTORE POP JUMP JUMPDEST PUSH1 0x0 PUSH2 0x19D1 PUSH1 0x10 DUP4 PUSH2 0x1362 JUMP JUMPDEST SWAP2 POP PUSH2 0x19DC DUP3 PUSH2 0x199B JUMP JUMPDEST PUSH1 0x20 DUP3 ADD SWAP1 POP SWAP2 SWAP1 POP JUMP JUMPDEST PUSH1 0x0 PUSH1 0x20 DUP3 ADD SWAP1 POP DUP2 DUP2 SUB PUSH1 0x0 DUP4 ADD MSTORE PUSH2 0x1A00 DUP2 PUSH2 0x19C4 JUMP JUMPDEST SWAP1 POP SWAP2 SWAP1 POP JUMP JUMPDEST PUSH32 0x4F776E61626C653A2063616C6C6572206973206E6F7420746865206F776E6572 PUSH1 0x0 DUP3 ADD MSTORE POP JUMP JUMPDEST PUSH1 0x0 PUSH2 0x1A3D PUSH1 0x20 DUP4 PUSH2 0x1362 JUMP JUMPDEST SWAP2 POP PUSH2 0x1A48 DUP3 PUSH2 0x1A07 JUMP JUMPDEST PUSH1 0x20 DUP3 ADD SWAP1 POP SWAP2 SWAP1 POP JUMP JUMPDEST PUSH1 0x0 PUSH1 0x20 DUP3 ADD SWAP1 POP DUP2 DUP2 SUB PUSH1 0x0 DUP4 ADD MSTORE PUSH2 0x1A6C DUP2 PUSH2 0x1A30 JUMP JUMPDEST SWAP1 POP SWAP2 SWAP1 POP JUMP JUMPDEST PUSH32 0x45524332303A206D696E7420746F20746865207A65726F206164647265737300 PUSH1 0x0 DUP3 ADD MSTORE POP JUMP JUMPDEST PUSH1 0x0 PUSH2 0x1AA9 PUSH1 0x1F DUP4 PUSH2 0x1362 JUMP JUMPDEST SWAP2 POP PUSH2 0x1AB4 DUP3 PUSH2 0x1A73 JUMP JUMPDEST PUSH1 0x20 DUP3 ADD SWAP1 POP SWAP2 SWAP1 POP JUMP JUMPDEST PUSH1 0x0 PUSH1 0x20 DUP3 ADD SWAP1 POP DUP2 DUP2 SUB PUSH1 0x0 DUP4 ADD MSTORE PUSH2 0x1AD8 DUP2 PUSH2 0x1A9C JUMP JUMPDEST SWAP1 POP SWAP2 SWAP1 POP JUMP JUMPDEST PUSH32 0x45524332303A206275726E2066726F6D20746865207A65726F20616464726573 PUSH1 0x0 DUP3 ADD MSTORE PUSH32 0x7300000000000000000000000000000000000000000000000000000000000000 PUSH1 0x20 DUP3 ADD MSTORE POP JUMP JUMPDEST PUSH1 0x0 PUSH2 0x1B3B PUSH1 0x21 DUP4 PUSH2 0x1362 JUMP JUMPDEST SWAP2 POP PUSH2 0x1B46 DUP3 PUSH2 0x1ADF JUMP JUMPDEST PUSH1 0x40 DUP3 ADD SWAP1 POP SWAP2 SWAP1 POP JUMP JUMPDEST PUSH1 0x0 PUSH1 0x20 DUP3 ADD SWAP1 POP DUP2 DUP2 SUB PUSH1 0x0 DUP4 ADD MSTORE PUSH2 0x1B6A DUP2 PUSH2 0x1B2E JUMP JUMPDEST SWAP1 POP SWAP2 SWAP1 POP JUMP JUMPDEST PUSH32 0x45524332303A206275726E20616D6F756E7420657863656564732062616C616E PUSH1 0x0 DUP3 ADD MSTORE PUSH32 0x6365000000000000000000000000000000000000000000000000000000000000 PUSH1 0x20 DUP3 ADD MSTORE POP JUMP JUMPDEST PUSH1 0x0 PUSH2 0x1BCD PUSH1 0x22 DUP4 PUSH2 0x1362 JUMP JUMPDEST SWAP2 POP PUSH2 0x1BD8 DUP3 PUSH2 0x1B71 JUMP JUMPDEST PUSH1 0x40 DUP3 ADD SWAP1 POP SWAP2 SWAP1 POP JUMP JUMPDEST PUSH1 0x0 PUSH1 0x20 DUP3 ADD SWAP1 POP DUP2 DUP2 SUB PUSH1 0x0 DUP4 ADD MSTORE PUSH2 0x1BFC DUP2 PUSH2 0x1BC0 JUMP JUMPDEST SWAP1 POP SWAP2 SWAP1 POP JUMP JUMPDEST PUSH32 0x45524332303A20696E73756666696369656E7420616C6C6F77616E6365000000 PUSH1 0x0 DUP3 ADD MSTORE POP JUMP JUMPDEST PUSH1 0x0 PUSH2 0x1C39 PUSH1 0x1D DUP4 PUSH2 0x1362 JUMP JUMPDEST SWAP2 POP PUSH2 0x1C44 DUP3 PUSH2 0x1C03 JUMP JUMPDEST PUSH1 0x20 DUP3 ADD SWAP1 POP SWAP2 SWAP1 POP JUMP JUMPDEST PUSH1 0x0 PUSH1 0x20 DUP3 ADD SWAP1 POP DUP2 DUP2 SUB PUSH1 0x0 DUP4 ADD MSTORE PUSH2 0x1C68 DUP2 PUSH2 0x1C2C JUMP JUMPDEST SWAP1 POP SWAP2 SWAP1 POP JUMP JUMPDEST PUSH32 0x45524332303A207472616E736665722066726F6D20746865207A65726F206164 PUSH1 0x0 DUP3 ADD MSTORE PUSH32 0x6472657373000000000000000000000000000000000000000000000000000000 PUSH1 0x20 DUP3 ADD MSTORE POP JUMP JUMPDEST PUSH1 0x0 PUSH2 0x1CCB PUSH1 0x25 DUP4 PUSH2 0x1362 JUMP JUMPDEST SWAP2 POP PUSH2 0x1CD6 DUP3 PUSH2 0x1C6F JUMP JUMPDEST PUSH1 0x40 DUP3 ADD SWAP1 POP SWAP2 SWAP1 POP JUMP JUMPDEST PUSH1 0x0 PUSH1 0x20 DUP3 ADD SWAP1 POP DUP2 DUP2 SUB PUSH1 0x0 DUP4 ADD MSTORE PUSH2 0x1CFA DUP2 PUSH2 0x1CBE JUMP JUMPDEST SWAP1 POP SWAP2 SWAP1 POP JUMP JUMPDEST PUSH32 0x45524332303A207472616E7366657220746F20746865207A65726F2061646472 PUSH1 0x0 DUP3 ADD MSTORE PUSH32 0x6573730000000000000000000000000000000000000000000000000000000000 PUSH1 0x20 DUP3 ADD MSTORE POP JUMP JUMPDEST PUSH1 0x0 PUSH2 0x1D5D PUSH1 0x23 DUP4 PUSH2 0x1362 JUMP JUMPDEST SWAP2 POP PUSH2 0x1D68 DUP3 PUSH2 0x1D01 JUMP JUMPDEST PUSH1 0x40 DUP3 ADD SWAP1 POP SWAP2 SWAP1 POP JUMP JUMPDEST PUSH1 0x0 PUSH1 0x20 DUP3 ADD SWAP1 POP DUP2 DUP2 SUB PUSH1 0x0 DUP4 ADD MSTORE PUSH2 0x1D8C DUP2 PUSH2 0x1D50 JUMP JUMPDEST SWAP1 POP SWAP2 SWAP1 POP JUMP JUMPDEST PUSH32 0x45524332303A207472616E7366657220616D6F756E7420657863656564732062 PUSH1 0x0 DUP3 ADD MSTORE PUSH32 0x616C616E63650000000000000000000000000000000000000000000000000000 PUSH1 0x20 DUP3 ADD MSTORE POP JUMP JUMPDEST PUSH1 0x0 PUSH2 0x1DEF PUSH1 0x26 DUP4 PUSH2 0x1362 JUMP JUMPDEST SWAP2 POP PUSH2 0x1DFA DUP3 PUSH2 0x1D93 JUMP JUMPDEST PUSH1 0x40 DUP3 ADD SWAP1 POP SWAP2 SWAP1 POP JUMP JUMPDEST PUSH1 0x0 PUSH1 0x20 DUP3 ADD SWAP1 POP DUP2 DUP2 SUB PUSH1 0x0 DUP4 ADD MSTORE PUSH2 0x1E1E DUP2 PUSH2 0x1DE2 JUMP JUMPDEST SWAP1 POP SWAP2 SWAP1 POP JUMP JUMPDEST PUSH32 0x5061757361626C653A206E6F7420706175736564000000000000000000000000 PUSH1 0x0 DUP3 ADD MSTORE POP JUMP JUMPDEST PUSH1 0x0 PUSH2 0x1E5B PUSH1 0x14 DUP4 PUSH2 0x1362 JUMP JUMPDEST SWAP2 POP PUSH2 0x1E66 DUP3 PUSH2 0x1E25 JUMP JUMPDEST PUSH1 0x20 DUP3 ADD SWAP1 POP SWAP2 SWAP1 POP JUMP JUMPDEST PUSH1 0x0 PUSH1 0x20 DUP3 ADD SWAP1 POP DUP2 DUP2 SUB PUSH1 0x0 DUP4 ADD MSTORE PUSH2 0x1E8A DUP2 PUSH2 0x1E4E JUMP JUMPDEST SWAP1 POP SWAP2 SWAP1 POP JUMP INVALID LOG2 PUSH5 0x6970667358 0x22 SLT KECCAK256 0xE2 DUP7 EXTCODEHASH BLOCKHASH DUP15 SWAP10 0xBB EXP SWAP9 0xD9 ADD TLOAD SHR DELEGATECALL 0xDA EXP 0xC 0xC6 0x26 RETURNDATASIZE ADDRESS 0xDA PUSH12 0x13B7F5F4E4C494469864736F PUSH13 0x634300081C0033000000000000 "
        },
        "methodIdentifiers": {
          "allowance(address,address)": "dd62ed3e",
          "approve(address,uint256)": "095ea7b3",
          "balanceOf(address)": "70a08231",
          "burn(uint256)": "42966c68",
          "burnFrom(address,uint256)": "79cc6790",
          "decimals()": "313ce567",
          "decreaseAllowance(address,uint256)": "a457c2d7",
          "increaseAllowance(address,uint256)": "39509351",
          "mint(address,uint256)": "40c10f19",
          "name()": "06fdde03",
          "owner()": "8da5cb5b",
          "pause()": "8456cb59",
          "paused()": "5c975abb",
          "renounceOwnership()": "715018a6",
          "symbol()": "95d89b41",
          "totalSupply()": "18160ddd",
          "transfer(address,uint256)": "a9059cbb",
          "transferFrom(address,address,uint256)": "23b872dd",
          "transferOwnership(address)": "f2fde38b",
          "unpause()": "3f4ba83a"
        }
      }
    }
  }
}